{
  "abi": [
    {
      "inputs": [
        {
          "internalType": "contract TrustToken",
          "name": "_trustToken",
          "type": "address"
        },
        {
          "internalType": "uint256",
          "name": "_deadline",
          "type": "uint256"
        }
      ],
      "stateMutability": "nonpayable",
      "type": "constructor"
    },
    {
      "inputs": [],
      "name": "ContentEvaluation_AlreadyVoted",
      "type": "error"
    },
    {
      "inputs": [],
      "name": "ContentEvaluation_AuthorCannotVote",
      "type": "error"
    },
    {
      "inputs": [],
      "name": "ContentEvaluation_CannotEvaluateForwardedContent",
      "type": "error"
    },
    {
      "inputs": [],
      "name": "ContentEvaluation_ContentValidationPeriodEnded",
      "type": "error"
    },
    {
      "inputs": [],
      "name": "ContentEvaluation_InvalidContentId",
      "type": "error"
    },
    {
      "inputs": [],
      "name": "ContentEvaluation_UpkeepNotNeeded",
      "type": "error"
    },
    {
      "inputs": [
        {
          "internalType": "address",
          "name": "owner",
          "type": "address"
        }
      ],
      "name": "OwnableInvalidOwner",
      "type": "error"
    },
    {
      "inputs": [
        {
          "internalType": "address",
          "name": "account",
          "type": "address"
        }
      ],
      "name": "OwnableUnauthorizedAccount",
      "type": "error"
    },
    {
      "inputs": [
        {
          "internalType": "uint256",
          "name": "x",
          "type": "uint256"
        },
        {
          "internalType": "uint256",
          "name": "y",
          "type": "uint256"
        }
      ],
      "name": "PRBMath_MulDiv18_Overflow",
      "type": "error"
    },
    {
      "inputs": [
        {
          "internalType": "uint256",
          "name": "x",
          "type": "uint256"
        },
        {
          "internalType": "uint256",
          "name": "y",
          "type": "uint256"
        },
        {
          "internalType": "uint256",
          "name": "denominator",
          "type": "uint256"
        }
      ],
      "name": "PRBMath_MulDiv_Overflow",
      "type": "error"
    },
    {
      "inputs": [],
      "name": "PRBMath_SD59x18_Div_InputTooSmall",
      "type": "error"
    },
    {
      "inputs": [
        {
          "internalType": "SD59x18",
          "name": "x",
          "type": "int256"
        },
        {
          "internalType": "SD59x18",
          "name": "y",
          "type": "int256"
        }
      ],
      "name": "PRBMath_SD59x18_Div_Overflow",
      "type": "error"
    },
    {
      "inputs": [
        {
          "internalType": "SD59x18",
          "name": "x",
          "type": "int256"
        }
      ],
      "name": "PRBMath_SD59x18_IntoUint256_Underflow",
      "type": "error"
    },
    {
      "inputs": [
        {
          "internalType": "SD59x18",
          "name": "x",
          "type": "int256"
        }
      ],
      "name": "PRBMath_SD59x18_Log_InputTooSmall",
      "type": "error"
    },
    {
      "inputs": [],
      "name": "PRBMath_SD59x18_Mul_InputTooSmall",
      "type": "error"
    },
    {
      "inputs": [
        {
          "internalType": "SD59x18",
          "name": "x",
          "type": "int256"
        },
        {
          "internalType": "SD59x18",
          "name": "y",
          "type": "int256"
        }
      ],
      "name": "PRBMath_SD59x18_Mul_Overflow",
      "type": "error"
    },
    {
      "anonymous": false,
      "inputs": [
        {
          "indexed": true,
          "internalType": "uint256",
          "name": "id",
          "type": "uint256"
        },
        {
          "indexed": false,
          "internalType": "enum DataTypes.EvaluationStatus",
          "name": "status",
          "type": "uint8"
        },
        {
          "indexed": false,
          "internalType": "bool",
          "name": "evaluation",
          "type": "bool"
        },
        {
          "indexed": false,
          "internalType": "uint256",
          "name": "confidence",
          "type": "uint256"
        },
        {
          "indexed": false,
          "internalType": "uint256",
          "name": "evaluationsCount",
          "type": "uint256"
        }
      ],
      "name": "ContentEvaluated",
      "type": "event"
    },
    {
      "anonymous": false,
      "inputs": [
        {
          "indexed": true,
          "internalType": "address",
          "name": "previousOwner",
          "type": "address"
        },
        {
          "indexed": true,
          "internalType": "address",
          "name": "newOwner",
          "type": "address"
        }
      ],
      "name": "OwnershipTransferred",
      "type": "event"
    },
    {
      "inputs": [
        {
          "internalType": "uint256",
          "name": "contentId",
          "type": "uint256"
        }
      ],
      "name": "checkContentValidation",
      "outputs": [
        {
          "internalType": "bool",
          "name": "upkeepNeeded",
          "type": "bool"
        }
      ],
      "stateMutability": "view",
      "type": "function"
    },
    {
      "inputs": [
        {
          "internalType": "uint256",
          "name": "contentId",
          "type": "uint256"
        }
      ],
      "name": "closeContentValidation",
      "outputs": [
        {
          "internalType": "string",
          "name": "response",
          "type": "string"
        },
        {
          "internalType": "bool",
          "name": "evaluation",
          "type": "bool"
        },
        {
          "internalType": "uint256",
          "name": "confidence",
          "type": "uint256"
        },
        {
          "internalType": "bool",
          "name": "valid",
          "type": "bool"
        }
      ],
      "stateMutability": "nonpayable",
      "type": "function"
    },
    {
      "inputs": [
        {
          "internalType": "uint256",
          "name": "contentId",
          "type": "uint256"
        },
        {
          "internalType": "bool",
          "name": "evaluation",
          "type": "bool"
        },
        {
          "internalType": "uint256",
          "name": "confidence",
          "type": "uint256"
        }
      ],
      "name": "evaluateContent",
      "outputs": [],
      "stateMutability": "nonpayable",
      "type": "function"
    },
    {
      "inputs": [
        {
          "internalType": "uint256",
          "name": "contentId",
          "type": "uint256"
        }
      ],
      "name": "getContentValidation",
      "outputs": [
        {
          "internalType": "enum DataTypes.EvaluationStatus",
          "name": "",
          "type": "uint8"
        },
        {
          "components": [
            {
              "internalType": "bool",
              "name": "evaluation",
              "type": "bool"
            },
            {
              "internalType": "uint256",
              "name": "confidence",
              "type": "uint256"
            }
          ],
          "internalType": "struct DataTypes.FinalEvaluation",
          "name": "",
          "type": "tuple"
        },
        {
          "internalType": "uint256",
          "name": "",
          "type": "uint256"
        }
      ],
      "stateMutability": "view",
      "type": "function"
    },
    {
      "inputs": [],
      "name": "i_deadline",
      "outputs": [
        {
          "internalType": "uint256",
          "name": "",
          "type": "uint256"
        }
      ],
      "stateMutability": "view",
      "type": "function"
    },
    {
      "inputs": [],
      "name": "owner",
      "outputs": [
        {
          "internalType": "address",
          "name": "",
          "type": "address"
        }
      ],
      "stateMutability": "view",
      "type": "function"
    },
    {
      "inputs": [],
      "name": "renounceOwnership",
      "outputs": [],
      "stateMutability": "nonpayable",
      "type": "function"
    },
    {
      "inputs": [
        {
          "internalType": "contract ContentSharing",
          "name": "_contentSharing",
          "type": "address"
        }
      ],
      "name": "setContentSharingContract",
      "outputs": [],
      "stateMutability": "nonpayable",
      "type": "function"
    },
    {
      "inputs": [
        {
          "internalType": "address",
          "name": "newOwner",
          "type": "address"
        }
      ],
      "name": "transferOwnership",
      "outputs": [],
      "stateMutability": "nonpayable",
      "type": "function"
    }
  ],
  "bytecode": {
    "object": "0x60c06040523480156200001157600080fd5b5060405162002d0738038062002d078339810160408190526200003491620000ce565b33806200005b57604051631e4fbdf760e01b81526000600482015260240160405180910390fd5b62000066816200007e565b506001600160a01b0390911660805260a0526200010a565b600080546001600160a01b038381166001600160a01b0319831681178455604051919092169283917f8be0079c531659141344cd1fd0a4f28419497f9722a3daafe3b4186f6b6457e09190a35050565b60008060408385031215620000e257600080fd5b82516001600160a01b0381168114620000fa57600080fd5b6020939093015192949293505050565b60805160a051612bae620001596000396000818160e701526102dc0152600081816105370152818161073f015281816108cb01528181610bcf01528181610ee90152610f190152612bae6000f3fe608060405234801561001057600080fd5b50600436106100935760003560e01c8063715018a611610066578063715018a61461013a578063866a674b146101445780638da5cb5b14610157578063d7cd5f1414610172578063f2fde38b1461018557600080fd5b80631951cad5146100985780632da4c5ec146100c05780634628ac39146100e25780634d2fb62114610117575b600080fd5b6100ab6100a6366004612635565b610198565b60405190151581526020015b60405180910390f35b6100d36100ce366004612635565b610323565b6040516100b793929190612686565b6101097f000000000000000000000000000000000000000000000000000000000000000081565b6040519081526020016100b7565b61012a610125366004612635565b61044a565b6040516100b79493929190612703565b610142610c6a565b005b610142610152366004612749565b610c7e565b6000546040516001600160a01b0390911681526020016100b7565b610142610180366004612774565b610ca8565b610142610193366004612749565b61107a565b60008180158061021d5750600360009054906101000a90046001600160a01b03166001600160a01b0316633732ee4a6040518163ffffffff1660e01b8152600401602060405180830381865afa1580156101f6573d6000803e3d6000fd5b505050506040513d601f19601f8201168201806040525081019061021a91906127ac565b81115b1561023b576040516309b0a43760e41b815260040160405180910390fd5b6003546040516302deb55360e21b8152600481018590526000916001600160a01b031690630b7ad54c90602401600060405180830381865afa158015610285573d6000803e3d6000fd5b505050506040513d6000823e601f3d908101601f191682016040526102ad919081019061289d565b905060008060008681526001602052604090205460ff1660038111156102d5576102d561264e565b14905060007f00000000000000000000000000000000000000000000000000000000000000008360a001514261030b9190612997565b101590508180156103195750805b9695505050505050565b6040805180820190915260008082526020820181905290600083815260016020526040808220815160608101909252805483929190829060ff16600381111561036e5761036e61264e565b600381111561037f5761037f61264e565b8152604080518082018252600184015460ff161515815260028401546020828101919091528084019190915260038401805483518184028101840185528181529390940193909160009084015b82821015610428576000848152602090819020604080516060810182526002860290920180546001600160a01b0381168452600160a01b900460ff161515838501526001908101549183019190915290835290920191016103cc565b5050509152505080516020820151604090920151519097919650945092505050565b606060008080848015806104d35750600360009054906101000a90046001600160a01b03166001600160a01b0316633732ee4a6040518163ffffffff1660e01b8152600401602060405180830381865afa1580156104ac573d6000803e3d6000fd5b505050506040513d601f19601f820116820180604052508101906104d091906127ac565b81115b156104f1576040516309b0a43760e41b815260040160405180910390fd5b60006104fc87610198565b90508061051c576040516334b3edcb60e01b815260040160405180910390fd5b600060016000898152602001908152602001600020905060007f00000000000000000000000000000000000000000000000000000000000000006001600160a01b03166334a70a416040518163ffffffff1660e01b8152600401602060405180830381865afa158015610593573d6000803e3d6000fd5b505050506040513d601f19601f820116820180604052508101906105b791906127ac565b90506001811115806105d657506105cf6002826129c0565b6003830154105b156107dd57815460ff19166002178255600354604051630d2d56f160e31b8152600481018b9052610763916001600160a01b03169063696ab788906024015b602060405180830381865afa158015610632573d6000803e3d6000fd5b505050506040513d601f19601f8201168201806040525081019061065691906129e2565b604080516060810190915284548590829060ff16600381111561067b5761067b61264e565b600381111561068c5761068c61264e565b8152604080518082018252600184015460ff161515815260028401546020828101919091528084019190915260038401805483518184028101840185528181529390940193909160009084015b82821015610735576000848152602090819020604080516060810182526002860290920180546001600160a01b0381168452600160a01b900460ff161515838501526001908101549183019190915290835290920191016106d9565b50505050815250507f00000000000000000000000000000000000000000000000000000000000000006110bd565b815460038301546040518b927fae809e6e16d4d10ea884dffe4071f7a3f83b28f9f1d425eb5307677c409f2af6926107a59260ff9092169160009182916129ff565b60405180910390a26000806000604051806060016040528060238152602001612b56602391399a5091985096509450610c6292505050565b604080516060810190915282546108ef91908490829060ff1660038111156108075761080761264e565b60038111156108185761081861264e565b8152604080518082018252600184015460ff161515815260028401546020828101919091528084019190915260038401805483518184028101840185528181529390940193909160009084015b828210156108c1576000848152602090819020604080516060810182526002860290920180546001600160a01b0381168452600160a01b900460ff16151583850152600190810154918301919091529083529092019101610865565b50505050815250507f0000000000000000000000000000000000000000000000000000000000000000611287565b60408051808201909152600c81526b022bb30b63ab0ba34b7b71d160a51b602082015292995090975095506109249088611317565b6109526040518060400160405280600c81526020016b021b7b73334b232b731b29d160a51b81525087611360565b61097b6040518060400160405280600781526020016602b30b634b21d160cd1b81525086611317565b84610a4057600354604051630d2d56f160e31b8152600481018b90526109b3916001600160a01b03169063696ab78890602401610615565b815460ff191660039081178355808301546040518b927fae809e6e16d4d10ea884dffe4071f7a3f83b28f9f1d425eb5307677c409f2af6926109f99260009182916129ff565b60405180910390a250506040805180820190915260168152754576616c756174696f6e206661696c65643a2054696560501b6020820152955060009450849350610c629050565b60408051808201825288151580825260209091018890526001848101805460ff1990811690931790556002850189905584549091161783556003549051630d2d56f160e31b8152600481018b9052610bf3916001600160a01b03169063696ab78890602401602060405180830381865afa158015610ac2573d6000803e3d6000fd5b505050506040513d601f19601f82011682018060405250810190610ae691906129e2565b604080516060810190915284548590829060ff166003811115610b0b57610b0b61264e565b6003811115610b1c57610b1c61264e565b8152604080518082018252600184015460ff161515815260028401546020828101919091528084019190915260038401805483518184028101840185528181529390940193909160009084015b82821015610bc5576000848152602090819020604080516060810182526002860290920180546001600160a01b0381168452600160a01b900460ff16151583850152600190810154918301919091529083529092019101610b69565b50505050815250507f00000000000000000000000000000000000000000000000000000000000000006113a5565b815460038301546040518b927fae809e6e16d4d10ea884dffe4071f7a3f83b28f9f1d425eb5307677c409f2af692610c349260ff909216918c918c916129ff565b60405180910390a25050604080518082019091526009815268115d985b1d585d195960ba1b60208201529550505b509193509193565b610c726113ef565b610c7c600061141c565b565b610c866113ef565b600380546001600160a01b0319166001600160a01b0392909216919091179055565b82801580610d2b5750600360009054906101000a90046001600160a01b03166001600160a01b0316633732ee4a6040518163ffffffff1660e01b8152600401602060405180830381865afa158015610d04573d6000803e3d6000fd5b505050506040513d601f19601f82011682018060405250810190610d2891906127ac565b81115b15610d49576040516309b0a43760e41b815260040160405180910390fd5b600354604051630d2d56f160e31b8152600481018690526001600160a01b039091169063696ab78890602401602060405180830381865afa158015610d92573d6000803e3d6000fd5b505050506040513d601f19601f82011682018060405250810190610db691906129e2565b6001600160a01b03163303610dde5760405163295e47f760e21b815260040160405180910390fd5b600084815260026020908152604080832033845290915290205460ff1615610e19576040516389c0813760e01b815260040160405180910390fd5b60035460405163867e159360e01b8152600481018690526001600160a01b039091169063867e159390602401602060405180830381865afa158015610e62573d6000803e3d6000fd5b505050506040513d601f19601f82011682018060405250810190610e869190612a28565b15610ea457604051632c4ceb0d60e21b815260040160405180910390fd5b600084815260016020526040812090815460ff166003811115610ec957610ec961264e565b14610ee757604051632ccd1d1560e01b815260040160405180910390fd5b7f00000000000000000000000000000000000000000000000000000000000000006001600160a01b031663066bdb0c337f00000000000000000000000000000000000000000000000000000000000000006001600160a01b0316634fee5a5b6040518163ffffffff1660e01b8152600401602060405180830381865afa158015610f75573d6000803e3d6000fd5b505050506040513d601f19601f82011682018060405250810190610f9991906127ac565b6040518363ffffffff1660e01b8152600401610fb6929190612a45565b600060405180830381600087803b158015610fd057600080fd5b505af1158015610fe4573d6000803e3d6000fd5b50505060009586525060026020818152604080882033808a52908352818920805460ff1916600190811790915582516060810184529182529715158184019081529181019687526003909401805480890182559089529190972092519102909101805495511515600160a01b026001600160a81b03199096166001600160a01b0392909216919091179490941784555051910155565b6110826113ef565b6001600160a01b0381166110b157604051631e4fbdf760e01b8152600060048201526024015b60405180910390fd5b6110ba8161141c565b50565b806001600160a01b03166319e9986084836001600160a01b031663090769956040518163ffffffff1660e01b8152600401602060405180830381865afa15801561110b573d6000803e3d6000fd5b505050506040513d601f19601f8201168201806040525081019061112f91906127ac565b6040518363ffffffff1660e01b815260040161114c929190612a45565b600060405180830381600087803b15801561116657600080fd5b505af115801561117a573d6000803e3d6000fd5b50505050604082015160005b815181101561128057826001600160a01b03166319e998608383815181106111b0576111b0612a5e565b602002602001015160000151856001600160a01b0316634fee5a5b6040518163ffffffff1660e01b8152600401602060405180830381865afa1580156111fa573d6000803e3d6000fd5b505050506040513d601f19601f8201168201806040525081019061121e91906127ac565b6040518363ffffffff1660e01b815260040161123b929190612a45565b600060405180830381600087803b15801561125557600080fd5b505af1158015611269573d6000803e3d6000fd5b50505050808061127890612a74565b915050611186565b5050505050565b600080600080856040015190506000806112a1838861146c565b9150915080602001518260200151036112c7576000806000955095509550505050611310565b80602001518260200151119550856112f257806060015181604001516112ed91906129c0565b611306565b8160600151826040015161130691906129c0565b9450600193505050505b9250925092565b61135c828260405160240161132d929190612a8d565b60408051601f198184030181529190526020810180516001600160e01b031663c3b5563560e01b179052611651565b5050565b61135c8282604051602401611376929190612ab1565b60408051601f198184030181529190526020810180516001600160e01b03166309710a9d60e41b179052611651565b60006113b083611672565b90506113dd60405180604001604052806009815260200168022b73a3937b83c9d160bd1b81525082611360565b6113e98484848461179b565b50505050565b6000546001600160a01b03163314610c7c5760405163118cdaa760e01b81523360048201526024016110a8565b600080546001600160a01b038381166001600160a01b0319831681178455604051919092169283917f8be0079c531659141344cd1fd0a4f28419497f9722a3daafe3b4186f6b6457e09190a35050565b61149960405180608001604052806000151581526020016000815260200160008152602001600081525090565b6114c660405180608001604052806000151581526020016000815260200160008152602001600081525090565b6040518060800160405280600115158152602001600081526020016000815260200160008152509150604051806080016040528060001515815260200160008152602001600081526020016000815250905060005b845181101561164957600085828151811061153857611538612a5e565b602002602001015160400151856001600160a01b0316636a4b783d88858151811061156557611565612a5e565b6020908102919091010151516040516001600160e01b031960e084901b1681526001600160a01b039091166004820152602401602060405180830381865afa1580156115b5573d6000803e3d6000fd5b505050506040513d601f19601f820116820180604052508101906115d991906127ac565b6115e39190612ad3565b90506116368683815181106115fa576115fa612a5e565b6020026020010151602001516116105783611612565b845b8288858151811061162557611625612a5e565b602002602001015160400151611b64565b508061164181612a74565b91505061151b565b509250929050565b80516a636f6e736f6c652e6c6f67602083016000808483855afa5050505050565b600080600061168084611ba8565b9092509050662386f26fc10000611695612617565b60005b838110156116f1576116c8838683600381106116b6576116b6612a5e565b60200201516116c59190612aea565b90565b8282600381106116da576116da612a5e565b6020020152806116e981612a74565b915050611698565b506729a2241af62c00006000805b858110156117655761175161174a61172d8587856003811061172357611723612a5e565b6020020151611cf6565b86846003811061173f5761173f612a5e565b602002015190611d1c565b8390611de9565b91508061175d81612a74565b9150506116ff565b5061177981670de0b6b3a763ffff19611d1c565b90508361178582611df8565b61178f91906129c0565b98975050505050505050565b60008360200151905060008460400151905060008080866001600160a01b031663090769956040518163ffffffff1660e01b8152600401602060405180830381865afa1580156117ef573d6000803e3d6000fd5b505050506040513d601f19601f8201168201806040525081019061181391906127ac565b90506000876001600160a01b0316634fee5a5b6040518163ffffffff1660e01b8152600401602060405180830381865afa158015611855573d6000803e3d6000fd5b505050506040513d601f19601f8201168201806040525081019061187991906127ac565b8651909150156118eb5760405162cf4cc360e51b8152600093506001600160a01b038916906319e99860906118b4908d908690600401612a45565b600060405180830381600087803b1580156118ce57600080fd5b505af11580156118e2573d6000803e3d6000fd5b5050505061194f565b819250876001600160a01b031663400152d18b846040518363ffffffff1660e01b815260040161191c929190612a45565b600060405180830381600087803b15801561193657600080fd5b505af115801561194a573d6000803e3d6000fd5b505050505b6119638a6001606489600001518b8d611e1f565b60005b8551811015611b4557600086828151811061198357611983612a5e565b602002602001015190506119ab8160000151826020015183604001518b600001518d8f611e1f565b876000015115158160200151151503611a345760408101516119cd9087612b1a565b815160405162cf4cc360e51b81529197506001600160a01b038c16916319e99860916119fd918790600401612a45565b600060405180830381600087803b158015611a1757600080fd5b505af1158015611a2b573d6000803e3d6000fd5b50505050611b32565b60006064826040015185611a489190612ad3565b611a5291906129c0565b82519091506001600160a01b038c16906319e9986090611a728488612997565b6040518363ffffffff1660e01b8152600401611a8f929190612a45565b600060405180830381600087803b158015611aa957600080fd5b505af1158015611abd573d6000803e3d6000fd5b5050835160405163400152d160e01b81526001600160a01b038f16935063400152d19250611af091908590600401612a45565b600060405180830381600087803b158015611b0a57600080fd5b505af1158015611b1e573d6000803e3d6000fd5b505050508086611b2e9190612b1a565b9550505b5080611b3d81612a74565b915050611966565b50611b588a86886000015186888d611f43565b50505050505050505050565b8183602001818151611b769190612b1a565b905250604083018051829190611b8d908390612b1a565b90525060608301805190611ba082612a74565b905250505050565b611bb0612617565b6040820151600090815b8151811015611c8857818181518110611bd557611bd5612a5e565b60200260200101516020015115611c3057818181518110611bf857611bf8612a5e565b60200260200101516040015184600060038110611c1757611c17612a5e565b60200201818151611c289190612b1a565b905250611c76565b818181518110611c4257611c42612a5e565b60200260200101516040015184600160038110611c6157611c61612a5e565b60200201818151611c729190612b1a565b9052505b80611c8081612a74565b915050611bba565b50805183518490611c9a9083906129c0565b9052508051602084018051611cb09083906129c0565b90525060208301518351611cc49190612b1a565b611ccf906064612997565b60408401819052839015611ce4576003611ce7565b60025b909560ff909116945092505050565b6000611d13611d0484612207565b611d0d84612207565b90612376565b90505b92915050565b60008282600160ff1b821480611d355750600160ff1b81145b15611d535760405163a6070c2560e01b815260040160405180910390fd5b60008060008412611d645783611d69565b836000035b915060008312611d795782611d7e565b826000035b90506000611d8c8383612423565b90506001600160ff1b03811115611dc05760405163120b5b4360e01b815260048101899052602481018890526044016110a8565b60001985851813611ddc81611dd857826000036116c5565b8290565b9998505050505050505050565b6000611d136116c58385612b2d565b60008181811215611d1657604051632463f3d560e01b8152600481018490526024016110a8565b604051636a4b783d60e01b81526001600160a01b03878116600483015260009190831690636a4b783d90602401602060405180830381865afa158015611e69573d6000803e3d6000fd5b505050506040513d601f19601f82011682018060405250810190611e8d91906127ac565b90508084151587151503611ebc576000611ea88388876124d9565b9050611eb48183612b1a565b915050611ed9565b6000611ec9838887612529565b9050611ed58183612997565b9150505b60405163111da0bf60e31b81526001600160a01b038416906388ed05f890611f07908b908590600401612a45565b600060405180830381600087803b158015611f2157600080fd5b505af1158015611f35573d6000803e3d6000fd5b505050505050505050505050565b60008415611ff357611f56606484612b1a565b9250600083611f66866064612ad3565b611f7091906129c0565b9050611f7c8183612b1a565b60405163a9059cbb60e01b81529092506001600160a01b0384169063a9059cbb90611fad908b908590600401612a45565b6020604051808303816000875af1158015611fcc573d6000803e3d6000fd5b505050506040513d601f19601f82011682018060405250810190611ff09190612a28565b50505b60005b86518110156120fb57600087828151811061201357612013612a5e565b6020026020010151905086151581602001511515036120e85760008587836040015161203f9190612ad3565b61204991906129c0565b9050846001600160a01b031663a9059cbb8a858151811061206c5761206c612a5e565b602002602001015160000151836040518363ffffffff1660e01b8152600401612096929190612a45565b6020604051808303816000875af11580156120b5573d6000803e3d6000fd5b505050506040513d601f19601f820116820180604052508101906120d99190612a28565b506120e48185612b1a565b9350505b50806120f381612a74565b915050611ff6565b508415612182576001600160a01b03821663a9059cbb8861211c8488612997565b6040518363ffffffff1660e01b8152600401612139929190612a45565b6020604051808303816000875af1158015612158573d6000803e3d6000fd5b505050506040513d601f19601f8201168201806040525081019061217c9190612a28565b506121fe565b6001600160a01b03821663a9059cbb8361219c8488612997565b6040518363ffffffff1660e01b81526004016121b9929190612a45565b6020604051808303816000875af11580156121d8573d6000803e3d6000fd5b505050506040513d601f19601f820116820180604052508101906121fc9190612a28565b505b50505050505050565b60008181811361222d5760405163059b101b60e01b8152600481018490526024016110a8565b6000670de0b6b3a764000082126122465750600161226c565b50600019816ec097ce7bc90715b34b9f100000000081612268576122686129aa565b0591505b60006122f8670de0b6b3a7640000840560016fffffffffffffffffffffffffffffffff821160071b91821c67ffffffffffffffff811160061b90811c63ffffffff811160051b90811c61ffff811160041b90811c60ff8111600390811b91821c600f811160021b90811c918211871b91821c969096119490961792909217171791909117919091171790565b9050670de0b6b3a7640000810283821d670de0b6b3a763ffff198101612325575091909102949350505050565b671bc16d674ec800006706f05b59d3b200005b600081131561236b57670de0b6b3a7640000838002059250818312612363579283019260019290921d915b60011d612338565b50918402918261178f565b60008282600160ff1b82148061238f5750600160ff1b81145b156123ad576040516309fe2b4560e41b815260040160405180910390fd5b600080600084126123be57836123c3565b836000035b9150600083126123d357826123d8565b826000035b905060006123ef83670de0b6b3a764000084612543565b90506001600160ff1b03811115611dc05760405163d49c26b360e01b815260048101899052602481018890526044016110a8565b60008080600019848609848602925082811083820303915050806000036124575750670de0b6b3a764000090049050611d16565b670de0b6b3a7640000811061248957604051635173648d60e01b815260048101869052602481018590526044016110a8565b6000670de0b6b3a764000085870962040000818503049310909103600160ee1b02919091177faccb18165bd6fe31ae1cf318dc5b51eee0e1ba569b88cd74c1773b91fac106690291505092915050565b600061271060026124eb846064612997565b6124f591906129c0565b84612501876064612997565b61250b9190612ad3565b6125159190612ad3565b61251f91906129c0565b90505b9392505050565b6000612710612539836064612997565b61250b8587612ad3565b600080806000198587098587029250828110838203039150508060000361257d57838281612573576125736129aa565b0492505050612522565b8381106125ae57604051630c740aef60e31b81526004810187905260248101869052604481018590526064016110a8565b60008486880960026001871981018816978890046003810283188082028403028082028403028082028403028082028403028082028403029081029092039091026000889003889004909101858311909403939093029303949094049190911702949350505050565b60405180606001604052806003906020820280368337509192915050565b60006020828403121561264757600080fd5b5035919050565b634e487b7160e01b600052602160045260246000fd5b6004811061268257634e487b7160e01b600052602160045260246000fd5b9052565b608081016126948286612664565b8351151560208381019190915290930151604082015260600152919050565b60005b838110156126ce5781810151838201526020016126b6565b50506000910152565b600081518084526126ef8160208601602086016126b3565b601f01601f19169290920160200192915050565b60808152600061271660808301876126d7565b94151560208301525060408101929092521515606090910152919050565b6001600160a01b03811681146110ba57600080fd5b60006020828403121561275b57600080fd5b813561252281612734565b80151581146110ba57600080fd5b60008060006060848603121561278957600080fd5b83359250602084013561279b81612766565b929592945050506040919091013590565b6000602082840312156127be57600080fd5b5051919050565b634e487b7160e01b600052604160045260246000fd5b60405160c0810167ffffffffffffffff811182821017156127fe576127fe6127c5565b60405290565b600082601f83011261281557600080fd5b815167ffffffffffffffff80821115612830576128306127c5565b604051601f8301601f19908116603f01168101908282118183101715612858576128586127c5565b8160405283815286602085880101111561287157600080fd5b6103198460208301602089016126b3565b805161288d81612734565b919050565b805161288d81612766565b6000602082840312156128af57600080fd5b815167ffffffffffffffff808211156128c757600080fd5b9083019060c082860312156128db57600080fd5b6128e36127db565b8251828111156128f257600080fd5b6128fe87828601612804565b82525060208301518281111561291357600080fd5b61291f87828601612804565b60208301525060408301518281111561293757600080fd5b61294387828601612804565b60408301525061295560608401612882565b606082015261296660808401612892565b608082015260a083015160a082015280935050505092915050565b634e487b7160e01b600052601160045260246000fd5b81810381811115611d1657611d16612981565b634e487b7160e01b600052601260045260246000fd5b6000826129dd57634e487b7160e01b600052601260045260246000fd5b500490565b6000602082840312156129f457600080fd5b815161252281612734565b60808101612a0d8287612664565b93151560208201526040810192909252606090910152919050565b600060208284031215612a3a57600080fd5b815161252281612766565b6001600160a01b03929092168252602082015260400190565b634e487b7160e01b600052603260045260246000fd5b600060018201612a8657612a86612981565b5060010190565b604081526000612aa060408301856126d7565b905082151560208301529392505050565b604081526000612ac460408301856126d7565b90508260208301529392505050565b8082028115828204841417611d1657611d16612981565b80820260008212600160ff1b84141615612b0657612b06612981565b8181058314821517611d1657611d16612981565b80820180821115611d1657611d16612981565b8082018281126000831280158216821582161715612b4d57612b4d612981565b50509291505056fe4576616c756174696f6e206661696c65643a204e6f7420656e6f75676820766f746573a2646970667358221220611b312a41b42970288189dce943d72669614397ca29386d0aa577fd8421fb8d64736f6c63430008150033",
    "linkReferences": {}
  },
  "methodIdentifiers": {
    "checkContentValidation(uint256)": "1951cad5",
    "closeContentValidation(uint256)": "4d2fb621",
    "evaluateContent(uint256,bool,uint256)": "d7cd5f14",
    "getContentValidation(uint256)": "2da4c5ec",
    "i_deadline()": "4628ac39",
    "owner()": "8da5cb5b",
    "renounceOwnership()": "715018a6",
    "setContentSharingContract(address)": "866a674b",
    "transferOwnership(address)": "f2fde38b"
  },
  "id": 56
}