{
  "abi": [
    {
      "inputs": [
        {
          "internalType": "contract TrustToken",
          "name": "_trustToken",
          "type": "address"
        }
      ],
      "stateMutability": "nonpayable",
      "type": "constructor"
    },
    {
      "inputs": [],
      "name": "ContentSharing_NoParentContentWithThatId",
      "type": "error"
    },
    {
      "inputs": [
        {
          "internalType": "address",
          "name": "owner",
          "type": "address"
        }
      ],
      "name": "OwnableInvalidOwner",
      "type": "error"
    },
    {
      "inputs": [
        {
          "internalType": "address",
          "name": "account",
          "type": "address"
        }
      ],
      "name": "OwnableUnauthorizedAccount",
      "type": "error"
    },
    {
      "anonymous": false,
      "inputs": [
        {
          "indexed": true,
          "internalType": "uint256",
          "name": "id",
          "type": "uint256"
        },
        {
          "indexed": true,
          "internalType": "address",
          "name": "sender",
          "type": "address"
        },
        {
          "indexed": false,
          "internalType": "string",
          "name": "title",
          "type": "string"
        },
        {
          "indexed": false,
          "internalType": "string",
          "name": "ipfsCid",
          "type": "string"
        },
        {
          "indexed": false,
          "internalType": "string",
          "name": "chatName",
          "type": "string"
        },
        {
          "indexed": false,
          "internalType": "uint256",
          "name": "parentContent",
          "type": "uint256"
        }
      ],
      "name": "ContentCreated",
      "type": "event"
    },
    {
      "anonymous": false,
      "inputs": [
        {
          "indexed": true,
          "internalType": "address",
          "name": "previousOwner",
          "type": "address"
        },
        {
          "indexed": true,
          "internalType": "address",
          "name": "newOwner",
          "type": "address"
        }
      ],
      "name": "OwnershipTransferred",
      "type": "event"
    },
    {
      "inputs": [
        {
          "internalType": "string",
          "name": "title",
          "type": "string"
        },
        {
          "internalType": "string",
          "name": "ipfsCid",
          "type": "string"
        },
        {
          "internalType": "string",
          "name": "chatName",
          "type": "string"
        },
        {
          "internalType": "uint256",
          "name": "parentId",
          "type": "uint256"
        }
      ],
      "name": "createContent",
      "outputs": [
        {
          "internalType": "uint256",
          "name": "id",
          "type": "uint256"
        }
      ],
      "stateMutability": "nonpayable",
      "type": "function"
    },
    {
      "inputs": [
        {
          "internalType": "uint256",
          "name": "index",
          "type": "uint256"
        }
      ],
      "name": "getContent",
      "outputs": [
        {
          "components": [
            {
              "internalType": "string",
              "name": "title",
              "type": "string"
            },
            {
              "internalType": "string",
              "name": "ipfsCid",
              "type": "string"
            },
            {
              "internalType": "string",
              "name": "chatName",
              "type": "string"
            },
            {
              "internalType": "address",
              "name": "sharer",
              "type": "address"
            },
            {
              "internalType": "bool",
              "name": "isForwarded",
              "type": "bool"
            },
            {
              "internalType": "uint256",
              "name": "timestamp",
              "type": "uint256"
            }
          ],
          "internalType": "struct DataTypes.Content",
          "name": "content",
          "type": "tuple"
        }
      ],
      "stateMutability": "view",
      "type": "function"
    },
    {
      "inputs": [
        {
          "internalType": "uint256",
          "name": "index",
          "type": "uint256"
        }
      ],
      "name": "getSharerOf",
      "outputs": [
        {
          "internalType": "address",
          "name": "sharer",
          "type": "address"
        }
      ],
      "stateMutability": "view",
      "type": "function"
    },
    {
      "inputs": [],
      "name": "getTotalContent",
      "outputs": [
        {
          "internalType": "uint256",
          "name": "lenght",
          "type": "uint256"
        }
      ],
      "stateMutability": "view",
      "type": "function"
    },
    {
      "inputs": [
        {
          "internalType": "uint256",
          "name": "index",
          "type": "uint256"
        }
      ],
      "name": "isForwarded",
      "outputs": [
        {
          "internalType": "bool",
          "name": "forwarded",
          "type": "bool"
        }
      ],
      "stateMutability": "view",
      "type": "function"
    },
    {
      "inputs": [],
      "name": "owner",
      "outputs": [
        {
          "internalType": "address",
          "name": "",
          "type": "address"
        }
      ],
      "stateMutability": "view",
      "type": "function"
    },
    {
      "inputs": [],
      "name": "renounceOwnership",
      "outputs": [],
      "stateMutability": "nonpayable",
      "type": "function"
    },
    {
      "inputs": [
        {
          "internalType": "address",
          "name": "newOwner",
          "type": "address"
        }
      ],
      "name": "transferOwnership",
      "outputs": [],
      "stateMutability": "nonpayable",
      "type": "function"
    }
  ],
  "bytecode": {
    "object": "0x60a06040523480156200001157600080fd5b506040516200103c3803806200103c8339810160408190526200003491620001d0565b33806200005b57604051631e4fbdf760e01b81526000600482015260240160405180910390fd5b620000668162000180565b506001600160a01b03811660809081526040805160e081018252600060c082018181528252825160208181018552828252808401919091528351908101845281815292820192909252606081018290529182018190524260a08301526001805480820182559152815160059091027fb10e2d527612073b26eecdfd717e6a320cf44b4afac2b0732d9fcbe2b7fa0cf601908190620001059082620002a7565b50602082015160018201906200011c9082620002a7565b5060408201516002820190620001339082620002a7565b50606082015160038201805460808501511515600160a01b026001600160a81b03199091166001600160a01b039093169290921791909117905560a0909101516004909101555062000373565b600080546001600160a01b038381166001600160a01b0319831681178455604051919092169283917f8be0079c531659141344cd1fd0a4f28419497f9722a3daafe3b4186f6b6457e09190a35050565b600060208284031215620001e357600080fd5b81516001600160a01b0381168114620001fb57600080fd5b9392505050565b634e487b7160e01b600052604160045260246000fd5b600181811c908216806200022d57607f821691505b6020821081036200024e57634e487b7160e01b600052602260045260246000fd5b50919050565b601f821115620002a257600081815260208120601f850160051c810160208610156200027d5750805b601f850160051c820191505b818110156200029e5782815560010162000289565b5050505b505050565b81516001600160401b03811115620002c357620002c362000202565b620002db81620002d4845462000218565b8462000254565b602080601f831160018114620003135760008415620002fa5750858301515b600019600386901b1c1916600185901b1785556200029e565b600085815260208120601f198616915b82811015620003445788860151825594840194600190910190840162000323565b5085821015620003635787850151600019600388901b60f8161c191681555b5050505050600190811b01905550565b608051610ca6620003966000396000818161042b015261045b0152610ca66000f3fe608060405234801561001057600080fd5b50600436106100885760003560e01c8063715018a61161005b578063715018a61461010a578063867e1593146101145780638da5cb5b14610137578063f2fde38b1461014857600080fd5b80630b7ad54c1461008d5780633732ee4a146100b6578063696ab788146100cc5780636c23f648146100f7575b600080fd5b6100a061009b366004610839565b61015b565b6040516100ad9190610898565b60405180910390f35b6100be6103b7565b6040519081526020016100ad565b6100df6100da366004610839565b6103cc565b6040516001600160a01b0390911681526020016100ad565b6100be61010536600461096e565b610404565b61011261072c565b005b610127610122366004610839565b610740565b60405190151581526020016100ad565b6000546001600160a01b03166100df565b610112610156366004610a11565b610779565b61019f6040518060c0016040528060608152602001606081526020016060815260200160006001600160a01b03168152602001600015158152602001600081525090565b600182815481106101b2576101b2610a41565b90600052602060002090600502016040518060c00160405290816000820180546101db90610a57565b80601f016020809104026020016040519081016040528092919081815260200182805461020790610a57565b80156102545780601f1061022957610100808354040283529160200191610254565b820191906000526020600020905b81548152906001019060200180831161023757829003601f168201915b5050505050815260200160018201805461026d90610a57565b80601f016020809104026020016040519081016040528092919081815260200182805461029990610a57565b80156102e65780601f106102bb576101008083540402835291602001916102e6565b820191906000526020600020905b8154815290600101906020018083116102c957829003601f168201915b505050505081526020016002820180546102ff90610a57565b80601f016020809104026020016040519081016040528092919081815260200182805461032b90610a57565b80156103785780601f1061034d57610100808354040283529160200191610378565b820191906000526020600020905b81548152906001019060200180831161035b57829003601f168201915b505050918352505060038201546001600160a01b0381166020830152600160a01b900460ff161515604082015260049091015460609091015292915050565b600180546000916103c791610a91565b905090565b6000600182815481106103e1576103e1610a41565b60009182526020909120600360059092020101546001600160a01b031692915050565b60015460009082106104295760405163247cf49360e21b815260040160405180910390fd5b7f00000000000000000000000000000000000000000000000000000000000000006001600160a01b031663066bdb0c337f00000000000000000000000000000000000000000000000000000000000000006001600160a01b031663090769956040518163ffffffff1660e01b8152600401602060405180830381865afa1580156104b7573d6000803e3d6000fd5b505050506040513d601f19601f820116820180604052508101906104db9190610ab8565b6040516001600160e01b031960e085901b1681526001600160a01b0390921660048301526024820152604401600060405180830381600087803b15801561052157600080fd5b505af1158015610535573d6000803e3d6000fd5b5050505060006040518060c001604052808a8a8080601f016020809104026020016040519081016040528093929190818152602001838380828437600092019190915250505090825250604080516020601f8b0181900481028201810190925289815291810191908a908a9081908401838280828437600092019190915250505090825250604080516020601f890181900481028201810190925287815291810191908890889081908401838280828437600092018290525093855250503360208401525085151560408301524260609092019190915260018054808201825591528151919250829160059091027fb10e2d527612073b26eecdfd717e6a320cf44b4afac2b0732d9fcbe2b7fa0cf6019081906106529082610b36565b50602082015160018201906106679082610b36565b506040820151600282019061067c9082610b36565b50606082015160038201805460808501511515600160a01b026001600160a81b03199091166001600160a01b039093169290921791909117905560a090910151600490910155600180546106d09190610a91565b9150336001600160a01b0316827ff7c57bbaef09594e35bae3e10bd4a93ebaa4152f558a1b3fa1464cb1bcc31a278b8b8b8b8b8b8b6040516107189796959493929190610c1f565b60405180910390a350979650505050505050565b6107346107bc565b61073e60006107e9565b565b60006001828154811061075557610755610a41565b6000918252602090912060059091020160030154600160a01b900460ff1692915050565b6107816107bc565b6001600160a01b0381166107b057604051631e4fbdf760e01b8152600060048201526024015b60405180910390fd5b6107b9816107e9565b50565b6000546001600160a01b0316331461073e5760405163118cdaa760e01b81523360048201526024016107a7565b600080546001600160a01b038381166001600160a01b0319831681178455604051919092169283917f8be0079c531659141344cd1fd0a4f28419497f9722a3daafe3b4186f6b6457e09190a35050565b60006020828403121561084b57600080fd5b5035919050565b6000815180845260005b818110156108785760208185018101518683018201520161085c565b506000602082860101526020601f19601f83011685010191505092915050565b602081526000825160c060208401526108b460e0840182610852565b90506020840151601f19808584030160408601526108d28383610852565b92506040860151915080858403016060860152506108f08282610852565b91505060018060a01b0360608501511660808401526080840151151560a084015260a084015160c08401528091505092915050565b60008083601f84011261093757600080fd5b50813567ffffffffffffffff81111561094f57600080fd5b60208301915083602082850101111561096757600080fd5b9250929050565b60008060008060008060006080888a03121561098957600080fd5b873567ffffffffffffffff808211156109a157600080fd5b6109ad8b838c01610925565b909950975060208a01359150808211156109c657600080fd5b6109d28b838c01610925565b909750955060408a01359150808211156109eb57600080fd5b506109f88a828b01610925565b989b979a50959894979596606090950135949350505050565b600060208284031215610a2357600080fd5b81356001600160a01b0381168114610a3a57600080fd5b9392505050565b634e487b7160e01b600052603260045260246000fd5b600181811c90821680610a6b57607f821691505b602082108103610a8b57634e487b7160e01b600052602260045260246000fd5b50919050565b81810381811115610ab257634e487b7160e01b600052601160045260246000fd5b92915050565b600060208284031215610aca57600080fd5b5051919050565b634e487b7160e01b600052604160045260246000fd5b601f821115610b3157600081815260208120601f850160051c81016020861015610b0e5750805b601f850160051c820191505b81811015610b2d57828155600101610b1a565b5050505b505050565b815167ffffffffffffffff811115610b5057610b50610ad1565b610b6481610b5e8454610a57565b84610ae7565b602080601f831160018114610b995760008415610b815750858301515b600019600386901b1c1916600185901b178555610b2d565b600085815260208120601f198616915b82811015610bc857888601518255948401946001909101908401610ba9565b5085821015610be65787850151600019600388901b60f8161c191681555b5050505050600190811b01905550565b81835281816020850137506000828201602090810191909152601f909101601f19169091010190565b608081526000610c3360808301898b610bf6565b8281036020840152610c4681888a610bf6565b90508281036040840152610c5b818688610bf6565b9150508260608301529897505050505050505056fea2646970667358221220ffb05e8a40a61568e8564a9dbeb2af128b91156198d3481f46f7e0d9f75f158564736f6c63430008150033",
    "linkReferences": {}
  },
  "methodIdentifiers": {
    "createContent(string,string,string,uint256)": "6c23f648",
    "getContent(uint256)": "0b7ad54c",
    "getSharerOf(uint256)": "696ab788",
    "getTotalContent()": "3732ee4a",
    "isForwarded(uint256)": "867e1593",
    "owner()": "8da5cb5b",
    "renounceOwnership()": "715018a6",
    "transferOwnership(address)": "f2fde38b"
  },
  "id": 57
}