{
  "abi": [
    {
      "inputs": [
        {
          "internalType": "contract TrustToken",
          "name": "_trustToken",
          "type": "address"
        },
        {
          "internalType": "uint256",
          "name": "_deadline",
          "type": "uint256"
        }
      ],
      "stateMutability": "nonpayable",
      "type": "constructor"
    },
    {
      "inputs": [],
      "name": "NewsEvaluation_AlreadyVoted",
      "type": "error"
    },
    {
      "inputs": [],
      "name": "NewsEvaluation_CannotEvaluateForwardedNews",
      "type": "error"
    },
    {
      "inputs": [],
      "name": "NewsEvaluation_InvalidNewsId",
      "type": "error"
    },
    {
      "inputs": [],
      "name": "NewsEvaluation_NewsValidationPeriodEnded",
      "type": "error"
    },
    {
      "inputs": [],
      "name": "NewsEvaluation_UpkeepNotNeeded",
      "type": "error"
    },
    {
      "inputs": [
        {
          "internalType": "address",
          "name": "owner",
          "type": "address"
        }
      ],
      "name": "OwnableInvalidOwner",
      "type": "error"
    },
    {
      "inputs": [
        {
          "internalType": "address",
          "name": "account",
          "type": "address"
        }
      ],
      "name": "OwnableUnauthorizedAccount",
      "type": "error"
    },
    {
      "inputs": [
        {
          "internalType": "uint256",
          "name": "x",
          "type": "uint256"
        },
        {
          "internalType": "uint256",
          "name": "y",
          "type": "uint256"
        }
      ],
      "name": "PRBMath_MulDiv18_Overflow",
      "type": "error"
    },
    {
      "inputs": [
        {
          "internalType": "uint256",
          "name": "x",
          "type": "uint256"
        },
        {
          "internalType": "uint256",
          "name": "y",
          "type": "uint256"
        },
        {
          "internalType": "uint256",
          "name": "denominator",
          "type": "uint256"
        }
      ],
      "name": "PRBMath_MulDiv_Overflow",
      "type": "error"
    },
    {
      "inputs": [],
      "name": "PRBMath_SD59x18_Div_InputTooSmall",
      "type": "error"
    },
    {
      "inputs": [
        {
          "internalType": "SD59x18",
          "name": "x",
          "type": "int256"
        },
        {
          "internalType": "SD59x18",
          "name": "y",
          "type": "int256"
        }
      ],
      "name": "PRBMath_SD59x18_Div_Overflow",
      "type": "error"
    },
    {
      "inputs": [
        {
          "internalType": "SD59x18",
          "name": "x",
          "type": "int256"
        }
      ],
      "name": "PRBMath_SD59x18_IntoUint256_Underflow",
      "type": "error"
    },
    {
      "inputs": [
        {
          "internalType": "SD59x18",
          "name": "x",
          "type": "int256"
        }
      ],
      "name": "PRBMath_SD59x18_Log_InputTooSmall",
      "type": "error"
    },
    {
      "inputs": [],
      "name": "PRBMath_SD59x18_Mul_InputTooSmall",
      "type": "error"
    },
    {
      "inputs": [
        {
          "internalType": "SD59x18",
          "name": "x",
          "type": "int256"
        },
        {
          "internalType": "SD59x18",
          "name": "y",
          "type": "int256"
        }
      ],
      "name": "PRBMath_SD59x18_Mul_Overflow",
      "type": "error"
    },
    {
      "anonymous": false,
      "inputs": [
        {
          "indexed": true,
          "internalType": "uint256",
          "name": "id",
          "type": "uint256"
        },
        {
          "indexed": false,
          "internalType": "enum DataTypes.EvaluationStatus",
          "name": "status",
          "type": "uint8"
        },
        {
          "indexed": false,
          "internalType": "bool",
          "name": "evaluation",
          "type": "bool"
        },
        {
          "indexed": false,
          "internalType": "uint256",
          "name": "confidence",
          "type": "uint256"
        },
        {
          "indexed": false,
          "internalType": "uint256",
          "name": "evaluationsCount",
          "type": "uint256"
        }
      ],
      "name": "NewsEvaluated",
      "type": "event"
    },
    {
      "anonymous": false,
      "inputs": [
        {
          "indexed": true,
          "internalType": "address",
          "name": "previousOwner",
          "type": "address"
        },
        {
          "indexed": true,
          "internalType": "address",
          "name": "newOwner",
          "type": "address"
        }
      ],
      "name": "OwnershipTransferred",
      "type": "event"
    },
    {
      "inputs": [
        {
          "internalType": "uint256",
          "name": "newsId",
          "type": "uint256"
        }
      ],
      "name": "checkNewsValidation",
      "outputs": [
        {
          "internalType": "bool",
          "name": "upkeepNeeded",
          "type": "bool"
        }
      ],
      "stateMutability": "view",
      "type": "function"
    },
    {
      "inputs": [
        {
          "internalType": "uint256",
          "name": "newsId",
          "type": "uint256"
        }
      ],
      "name": "closeNewsValidation",
      "outputs": [
        {
          "internalType": "string",
          "name": "response",
          "type": "string"
        },
        {
          "internalType": "bool",
          "name": "evaluation",
          "type": "bool"
        },
        {
          "internalType": "uint256",
          "name": "confidence",
          "type": "uint256"
        },
        {
          "internalType": "bool",
          "name": "valid",
          "type": "bool"
        }
      ],
      "stateMutability": "nonpayable",
      "type": "function"
    },
    {
      "inputs": [
        {
          "internalType": "uint256",
          "name": "newsId",
          "type": "uint256"
        },
        {
          "internalType": "bool",
          "name": "evaluation",
          "type": "bool"
        },
        {
          "internalType": "uint256",
          "name": "confidence",
          "type": "uint256"
        }
      ],
      "name": "evaluateNews",
      "outputs": [],
      "stateMutability": "nonpayable",
      "type": "function"
    },
    {
      "inputs": [
        {
          "internalType": "uint256",
          "name": "newsId",
          "type": "uint256"
        }
      ],
      "name": "getNewsValidation",
      "outputs": [
        {
          "internalType": "enum DataTypes.EvaluationStatus",
          "name": "",
          "type": "uint8"
        },
        {
          "components": [
            {
              "internalType": "bool",
              "name": "evaluation",
              "type": "bool"
            },
            {
              "internalType": "uint256",
              "name": "confidence",
              "type": "uint256"
            }
          ],
          "internalType": "struct DataTypes.FinalEvaluation",
          "name": "",
          "type": "tuple"
        },
        {
          "internalType": "uint256",
          "name": "",
          "type": "uint256"
        }
      ],
      "stateMutability": "view",
      "type": "function"
    },
    {
      "inputs": [],
      "name": "i_deadline",
      "outputs": [
        {
          "internalType": "uint256",
          "name": "",
          "type": "uint256"
        }
      ],
      "stateMutability": "view",
      "type": "function"
    },
    {
      "inputs": [],
      "name": "owner",
      "outputs": [
        {
          "internalType": "address",
          "name": "",
          "type": "address"
        }
      ],
      "stateMutability": "view",
      "type": "function"
    },
    {
      "inputs": [],
      "name": "renounceOwnership",
      "outputs": [],
      "stateMutability": "nonpayable",
      "type": "function"
    },
    {
      "inputs": [
        {
          "internalType": "contract NewsSharing",
          "name": "_newsSharing",
          "type": "address"
        }
      ],
      "name": "setNewsSharingContract",
      "outputs": [],
      "stateMutability": "nonpayable",
      "type": "function"
    },
    {
      "inputs": [
        {
          "internalType": "address",
          "name": "newOwner",
          "type": "address"
        }
      ],
      "name": "transferOwnership",
      "outputs": [],
      "stateMutability": "nonpayable",
      "type": "function"
    }
  ],
  "bytecode": {
    "object": "0x60c06040523480156200001157600080fd5b5060405162002c2438038062002c248339810160408190526200003491620000ce565b33806200005b57604051631e4fbdf760e01b81526000600482015260240160405180910390fd5b62000066816200007e565b506001600160a01b0390911660805260a0526200010a565b600080546001600160a01b038381166001600160a01b0319831681178455604051919092169283917f8be0079c531659141344cd1fd0a4f28419497f9722a3daafe3b4186f6b6457e09190a35050565b60008060408385031215620000e257600080fd5b82516001600160a01b0381168114620000fa57600080fd5b6020939093015192949293505050565b60805160a051612acb620001596000396000818160fd015261030601526000818161043a01528181610642015281816107ce01528181610ad201528181610d2d0152610d5e0152612acb6000f3fe608060405234801561001057600080fd5b50600436106100935760003560e01c8063715018a611610066578063715018a61461012d5780638746fe00146101355780638da5cb5b14610148578063a7e4130e14610163578063f2fde38b1461018557600080fd5b80630724ca71146100985780632766b3c9146100ad5780634122982f146100d55780634628ac39146100f8575b600080fd5b6100ab6100a6366004612567565b610198565b005b6100c06100bb366004612584565b6101c2565b60405190151581526020015b60405180910390f35b6100e86100e3366004612584565b61034d565b6040516100cc94939291906125ed565b61011f7f000000000000000000000000000000000000000000000000000000000000000081565b6040519081526020016100cc565b6100ab610b6d565b6100ab61014336600461262c565b610b81565b6000546040516001600160a01b0390911681526020016100cc565b610176610171366004612584565b610ed7565b6040516100cc9392919061269c565b6100ab610193366004612567565b610ffe565b6101a0611041565b600380546001600160a01b0319166001600160a01b0392909216919091179055565b6000818015806102475750600360009054906101000a90046001600160a01b03166001600160a01b031663d204ff3e6040518163ffffffff1660e01b8152600401602060405180830381865afa158015610220573d6000803e3d6000fd5b505050506040513d601f19601f8201168201806040525081019061024491906126c9565b81115b15610265576040516324f2d78960e21b815260040160405180910390fd5b60035460405163ba53911b60e01b8152600481018590526000916001600160a01b03169063ba53911b90602401600060405180830381865afa1580156102af573d6000803e3d6000fd5b505050506040513d6000823e601f3d908101601f191682016040526102d791908101906127ba565b905060008060008681526001602052604090205460ff1660038111156102ff576102ff612664565b14905060007f00000000000000000000000000000000000000000000000000000000000000008360a001514261033591906128b4565b101590508180156103435750805b9695505050505050565b606060008080848015806103d65750600360009054906101000a90046001600160a01b03166001600160a01b031663d204ff3e6040518163ffffffff1660e01b8152600401602060405180830381865afa1580156103af573d6000803e3d6000fd5b505050506040513d601f19601f820116820180604052508101906103d391906126c9565b81115b156103f4576040516324f2d78960e21b815260040160405180910390fd5b60006103ff876101c2565b90508061041f57604051633f99734160e21b815260040160405180910390fd5b600060016000898152602001908152602001600020905060007f00000000000000000000000000000000000000000000000000000000000000006001600160a01b0316639b9cc1e06040518163ffffffff1660e01b8152600401602060405180830381865afa158015610496573d6000803e3d6000fd5b505050506040513d601f19601f820116820180604052508101906104ba91906126c9565b90506001811115806104d957506104d26002826128dd565b6003830154105b156106e057815460ff19166002178255600354604051630d2d56f160e31b8152600481018b9052610666916001600160a01b03169063696ab788906024015b602060405180830381865afa158015610535573d6000803e3d6000fd5b505050506040513d601f19601f8201168201806040525081019061055991906128ff565b604080516060810190915284548590829060ff16600381111561057e5761057e612664565b600381111561058f5761058f612664565b8152604080518082018252600184015460ff161515815260028401546020828101919091528084019190915260038401805483518184028101840185528181529390940193909160009084015b82821015610638576000848152602090819020604080516060810182526002860290920180546001600160a01b0381168452600160a01b900460ff161515838501526001908101549183019190915290835290920191016105dc565b50505050815250507f000000000000000000000000000000000000000000000000000000000000000061106e565b815460038301546040518b927f4805ff01e36a5cd4f79f6f0143723d6c9ee46604ad61e0659022597e6496f65f926106a89260ff90921691600091829161291c565b60405180910390a26000806000604051806060016040528060238152602001612a73602391399a5091985096509450610b6592505050565b604080516060810190915282546107f291908490829060ff16600381111561070a5761070a612664565b600381111561071b5761071b612664565b8152604080518082018252600184015460ff161515815260028401546020828101919091528084019190915260038401805483518184028101840185528181529390940193909160009084015b828210156107c4576000848152602090819020604080516060810182526002860290920180546001600160a01b0381168452600160a01b900460ff16151583850152600190810154918301919091529083529092019101610768565b50505050815250507f000000000000000000000000000000000000000000000000000000000000000061125b565b60408051808201909152600c81526b022bb30b63ab0ba34b7b71d160a51b6020820152929950909750955061082790886112eb565b6108556040518060400160405280600c81526020016b021b7b73334b232b731b29d160a51b81525087611334565b61087e6040518060400160405280600781526020016602b30b634b21d160cd1b815250866112eb565b8461094357600354604051630d2d56f160e31b8152600481018b90526108b6916001600160a01b03169063696ab78890602401610518565b815460ff191660039081178355808301546040518b927f4805ff01e36a5cd4f79f6f0143723d6c9ee46604ad61e0659022597e6496f65f926108fc92600091829161291c565b60405180910390a250506040805180820190915260168152754576616c756174696f6e206661696c65643a2054696560501b6020820152955060009450849350610b659050565b60408051808201825288151580825260209091018890526001848101805460ff1990811690931790556002850189905584549091161783556003549051630d2d56f160e31b8152600481018b9052610af6916001600160a01b03169063696ab78890602401602060405180830381865afa1580156109c5573d6000803e3d6000fd5b505050506040513d601f19601f820116820180604052508101906109e991906128ff565b604080516060810190915284548590829060ff166003811115610a0e57610a0e612664565b6003811115610a1f57610a1f612664565b8152604080518082018252600184015460ff161515815260028401546020828101919091528084019190915260038401805483518184028101840185528181529390940193909160009084015b82821015610ac8576000848152602090819020604080516060810182526002860290920180546001600160a01b0381168452600160a01b900460ff16151583850152600190810154918301919091529083529092019101610a6c565b50505050815250507f0000000000000000000000000000000000000000000000000000000000000000611379565b815460038301546040518b927f4805ff01e36a5cd4f79f6f0143723d6c9ee46604ad61e0659022597e6496f65f92610b379260ff909216918c918c9161291c565b60405180910390a25050604080518082019091526009815268115d985b1d585d195960ba1b60208201529550505b509193509193565b610b75611041565b610b7f60006113c3565b565b82801580610c045750600360009054906101000a90046001600160a01b03166001600160a01b031663d204ff3e6040518163ffffffff1660e01b8152600401602060405180830381865afa158015610bdd573d6000803e3d6000fd5b505050506040513d601f19601f82011682018060405250810190610c0191906126c9565b81115b15610c22576040516324f2d78960e21b815260040160405180910390fd5b600084815260026020908152604080832033845290915290205460ff1615610c5d576040516318c16ab360e01b815260040160405180910390fd5b60035460405163867e159360e01b8152600481018690526001600160a01b039091169063867e159390602401602060405180830381865afa158015610ca6573d6000803e3d6000fd5b505050506040513d601f19601f82011682018060405250810190610cca9190612945565b15610ce85760405163dd4e3ae560e01b815260040160405180910390fd5b600084815260016020526040812090815460ff166003811115610d0d57610d0d612664565b14610d2b576040516304ff060960e21b815260040160405180910390fd5b7f00000000000000000000000000000000000000000000000000000000000000006001600160a01b031663db11325d33307f00000000000000000000000000000000000000000000000000000000000000006001600160a01b0316634fee5a5b6040518163ffffffff1660e01b8152600401602060405180830381865afa158015610dba573d6000803e3d6000fd5b505050506040513d601f19601f82011682018060405250810190610dde91906126c9565b6040516001600160e01b031960e086901b1681526001600160a01b0393841660048201529290911660248301526044820152606401600060405180830381600087803b158015610e2d57600080fd5b505af1158015610e41573d6000803e3d6000fd5b50505060009586525060026020818152604080882033808a52908352818920805460ff1916600190811790915582516060810184529182529715158184019081529181019687526003909401805480890182559089529190972092519102909101805495511515600160a01b026001600160a81b03199096166001600160a01b0392909216919091179490941784555051910155565b6040805180820190915260008082526020820181905290600083815260016020526040808220815160608101909252805483929190829060ff166003811115610f2257610f22612664565b6003811115610f3357610f33612664565b8152604080518082018252600184015460ff161515815260028401546020828101919091528084019190915260038401805483518184028101840185528181529390940193909160009084015b82821015610fdc576000848152602090819020604080516060810182526002860290920180546001600160a01b0381168452600160a01b900460ff16151583850152600190810154918301919091529083529092019101610f80565b5050509152505080516020820151604090920151519097919650945092505050565b611006611041565b6001600160a01b03811661103557604051631e4fbdf760e01b8152600060048201526024015b60405180910390fd5b61103e816113c3565b50565b6000546001600160a01b03163314610b7f5760405163118cdaa760e01b815233600482015260240161102c565b806001600160a01b031663a9059cbb84836001600160a01b031663090769956040518163ffffffff1660e01b8152600401602060405180830381865afa1580156110bc573d6000803e3d6000fd5b505050506040513d601f19601f820116820180604052508101906110e091906126c9565b6040518363ffffffff1660e01b81526004016110fd929190612962565b6020604051808303816000875af115801561111c573d6000803e3d6000fd5b505050506040513d601f19601f820116820180604052508101906111409190612945565b50604082015160005b815181101561125457826001600160a01b031663a9059cbb8383815181106111735761117361297b565b602002602001015160000151856001600160a01b0316634fee5a5b6040518163ffffffff1660e01b8152600401602060405180830381865afa1580156111bd573d6000803e3d6000fd5b505050506040513d601f19601f820116820180604052508101906111e191906126c9565b6040518363ffffffff1660e01b81526004016111fe929190612962565b6020604051808303816000875af115801561121d573d6000803e3d6000fd5b505050506040513d601f19601f820116820180604052508101906112419190612945565b508061124c81612991565b915050611149565b5050505050565b600080600080856040015190506000806112758388611413565b91509150806020015182602001510361129b5760008060009550955095505050506112e4565b80602001518260200151119550856112c657806060015181604001516112c191906128dd565b6112da565b816060015182604001516112da91906128dd565b9450600193505050505b9250925092565b61133082826040516024016113019291906129aa565b60408051601f198184030181529190526020810180516001600160e01b031663c3b5563560e01b1790526115f8565b5050565b611330828260405160240161134a9291906129ce565b60408051601f198184030181529190526020810180516001600160e01b03166309710a9d60e41b1790526115f8565b600061138483611619565b90506113b160405180604001604052806009815260200168022b73a3937b83c9d160bd1b81525082611334565b6113bd84848484611742565b50505050565b600080546001600160a01b038381166001600160a01b0319831681178455604051919092169283917f8be0079c531659141344cd1fd0a4f28419497f9722a3daafe3b4186f6b6457e09190a35050565b61144060405180608001604052806000151581526020016000815260200160008152602001600081525090565b61146d60405180608001604052806000151581526020016000815260200160008152602001600081525090565b6040518060800160405280600115158152602001600081526020016000815260200160008152509150604051806080016040528060001515815260200160008152602001600081526020016000815250905060005b84518110156115f05760008582815181106114df576114df61297b565b602002602001015160400151856001600160a01b0316636a4b783d88858151811061150c5761150c61297b565b6020908102919091010151516040516001600160e01b031960e084901b1681526001600160a01b039091166004820152602401602060405180830381865afa15801561155c573d6000803e3d6000fd5b505050506040513d601f19601f8201168201806040525081019061158091906126c9565b61158a91906129f0565b90506115dd8683815181106115a1576115a161297b565b6020026020010151602001516115b757836115b9565b845b828885815181106115cc576115cc61297b565b602002602001015160400151611a81565b50806115e881612991565b9150506114c2565b509250929050565b80516a636f6e736f6c652e6c6f67602083016000808483855afa5050505050565b600080600061162784611ac5565b9092509050662386f26fc1000061163c612534565b60005b838110156116985761166f8386836003811061165d5761165d61297b565b602002015161166c9190612a07565b90565b8282600381106116815761168161297b565b60200201528061169081612991565b91505061163f565b506729a2241af62c00006000805b8581101561170c576116f86116f16116d4858785600381106116ca576116ca61297b565b6020020151611c13565b8684600381106116e6576116e661297b565b602002015190611c39565b8390611d06565b91508061170481612991565b9150506116a6565b5061172081670de0b6b3a763ffff19611c39565b90508361172c82611d15565b61173691906128dd565b98975050505050505050565b60008360200151905060008460400151905060008080866001600160a01b031663090769956040518163ffffffff1660e01b8152600401602060405180830381865afa158015611796573d6000803e3d6000fd5b505050506040513d601f19601f820116820180604052508101906117ba91906126c9565b90506000876001600160a01b0316634fee5a5b6040518163ffffffff1660e01b8152600401602060405180830381865afa1580156117fc573d6000803e3d6000fd5b505050506040513d601f19601f8201168201806040525081019061182091906126c9565b8651909150156118a55760405163a9059cbb60e01b8152600093506001600160a01b0389169063a9059cbb9061185c908d908690600401612962565b6020604051808303816000875af115801561187b573d6000803e3d6000fd5b505050506040513d601f19601f8201168201806040525081019061189f9190612945565b506118a9565b8192505b6118bd8a6001606489600001518b8d611d3c565b60005b8551811015611a625760008682815181106118dd576118dd61297b565b602002602001015190506119058160000151826020015183604001518b600001518d8f611d3c565b8760000151151581602001511515036119a15760408101516119279087612a37565b815160405163a9059cbb60e01b81529197506001600160a01b038c169163a9059cbb91611958918790600401612962565b6020604051808303816000875af1158015611977573d6000803e3d6000fd5b505050506040513d601f19601f8201168201806040525081019061199b9190612945565b50611a4f565b600060648260400151856119b591906129f0565b6119bf91906128dd565b90506119cb8187612a37565b82519096506001600160a01b038c169063a9059cbb906119ec8460646128b4565b6040518363ffffffff1660e01b8152600401611a09929190612962565b6020604051808303816000875af1158015611a28573d6000803e3d6000fd5b505050506040513d601f19601f82011682018060405250810190611a4c9190612945565b50505b5080611a5a81612991565b9150506118c0565b50611a758a86886000015186888d611e60565b50505050505050505050565b8183602001818151611a939190612a37565b905250604083018051829190611aaa908390612a37565b90525060608301805190611abd82612991565b905250505050565b611acd612534565b6040820151600090815b8151811015611ba557818181518110611af257611af261297b565b60200260200101516020015115611b4d57818181518110611b1557611b1561297b565b60200260200101516040015184600060038110611b3457611b3461297b565b60200201818151611b459190612a37565b905250611b93565b818181518110611b5f57611b5f61297b565b60200260200101516040015184600160038110611b7e57611b7e61297b565b60200201818151611b8f9190612a37565b9052505b80611b9d81612991565b915050611ad7565b50805183518490611bb79083906128dd565b9052508051602084018051611bcd9083906128dd565b90525060208301518351611be19190612a37565b611bec9060646128b4565b60408401819052839015611c01576003611c04565b60025b909560ff909116945092505050565b6000611c30611c2184612124565b611c2a84612124565b90612293565b90505b92915050565b60008282600160ff1b821480611c525750600160ff1b81145b15611c705760405163a6070c2560e01b815260040160405180910390fd5b60008060008412611c815783611c86565b836000035b915060008312611c965782611c9b565b826000035b90506000611ca98383612340565b90506001600160ff1b03811115611cdd5760405163120b5b4360e01b8152600481018990526024810188905260440161102c565b60001985851813611cf981611cf5578260000361166c565b8290565b9998505050505050505050565b6000611c3061166c8385612a4a565b60008181811215611c3357604051632463f3d560e01b81526004810184905260240161102c565b604051636a4b783d60e01b81526001600160a01b03878116600483015260009190831690636a4b783d90602401602060405180830381865afa158015611d86573d6000803e3d6000fd5b505050506040513d601f19601f82011682018060405250810190611daa91906126c9565b90508084151587151503611dd9576000611dc58388876123f6565b9050611dd18183612a37565b915050611df6565b6000611de6838887612446565b9050611df281836128b4565b9150505b60405163111da0bf60e31b81526001600160a01b038416906388ed05f890611e24908b908590600401612962565b600060405180830381600087803b158015611e3e57600080fd5b505af1158015611e52573d6000803e3d6000fd5b505050505050505050505050565b60008415611f1057611e73606484612a37565b9250600083611e838660646129f0565b611e8d91906128dd565b9050611e998183612a37565b60405163a9059cbb60e01b81529092506001600160a01b0384169063a9059cbb90611eca908b908590600401612962565b6020604051808303816000875af1158015611ee9573d6000803e3d6000fd5b505050506040513d601f19601f82011682018060405250810190611f0d9190612945565b50505b60005b8651811015612018576000878281518110611f3057611f3061297b565b60200260200101519050861515816020015115150361200557600085878360400151611f5c91906129f0565b611f6691906128dd565b9050846001600160a01b031663a9059cbb8a8581518110611f8957611f8961297b565b602002602001015160000151836040518363ffffffff1660e01b8152600401611fb3929190612962565b6020604051808303816000875af1158015611fd2573d6000803e3d6000fd5b505050506040513d601f19601f82011682018060405250810190611ff69190612945565b506120018185612a37565b9350505b508061201081612991565b915050611f13565b50841561209f576001600160a01b03821663a9059cbb8861203984886128b4565b6040518363ffffffff1660e01b8152600401612056929190612962565b6020604051808303816000875af1158015612075573d6000803e3d6000fd5b505050506040513d601f19601f820116820180604052508101906120999190612945565b5061211b565b6001600160a01b03821663a9059cbb836120b984886128b4565b6040518363ffffffff1660e01b81526004016120d6929190612962565b6020604051808303816000875af11580156120f5573d6000803e3d6000fd5b505050506040513d601f19601f820116820180604052508101906121199190612945565b505b50505050505050565b60008181811361214a5760405163059b101b60e01b81526004810184905260240161102c565b6000670de0b6b3a7640000821261216357506001612189565b50600019816ec097ce7bc90715b34b9f100000000081612185576121856128c7565b0591505b6000612215670de0b6b3a7640000840560016fffffffffffffffffffffffffffffffff821160071b91821c67ffffffffffffffff811160061b90811c63ffffffff811160051b90811c61ffff811160041b90811c60ff8111600390811b91821c600f811160021b90811c918211871b91821c969096119490961792909217171791909117919091171790565b9050670de0b6b3a7640000810283821d670de0b6b3a763ffff198101612242575091909102949350505050565b671bc16d674ec800006706f05b59d3b200005b600081131561228857670de0b6b3a7640000838002059250818312612280579283019260019290921d915b60011d612255565b509184029182611736565b60008282600160ff1b8214806122ac5750600160ff1b81145b156122ca576040516309fe2b4560e41b815260040160405180910390fd5b600080600084126122db57836122e0565b836000035b9150600083126122f057826122f5565b826000035b9050600061230c83670de0b6b3a764000084612460565b90506001600160ff1b03811115611cdd5760405163d49c26b360e01b8152600481018990526024810188905260440161102c565b60008080600019848609848602925082811083820303915050806000036123745750670de0b6b3a764000090049050611c33565b670de0b6b3a764000081106123a657604051635173648d60e01b8152600481018690526024810185905260440161102c565b6000670de0b6b3a764000085870962040000818503049310909103600160ee1b02919091177faccb18165bd6fe31ae1cf318dc5b51eee0e1ba569b88cd74c1773b91fac106690291505092915050565b600061271060026124088460646128b4565b61241291906128dd565b8461241e8760646128b4565b61242891906129f0565b61243291906129f0565b61243c91906128dd565b90505b9392505050565b60006127106124568360646128b4565b61242885876129f0565b600080806000198587098587029250828110838203039150508060000361249a57838281612490576124906128c7565b049250505061243f565b8381106124cb57604051630c740aef60e31b815260048101879052602481018690526044810185905260640161102c565b60008486880960026001871981018816978890046003810283188082028403028082028403028082028403028082028403028082028403029081029092039091026000889003889004909101858311909403939093029303949094049190911702949350505050565b60405180606001604052806003906020820280368337509192915050565b6001600160a01b038116811461103e57600080fd5b60006020828403121561257957600080fd5b813561243f81612552565b60006020828403121561259657600080fd5b5035919050565b60005b838110156125b85781810151838201526020016125a0565b50506000910152565b600081518084526125d981602086016020860161259d565b601f01601f19169290920160200192915050565b60808152600061260060808301876125c1565b94151560208301525060408101929092521515606090910152919050565b801515811461103e57600080fd5b60008060006060848603121561264157600080fd5b8335925060208401356126538161261e565b929592945050506040919091013590565b634e487b7160e01b600052602160045260246000fd5b6004811061269857634e487b7160e01b600052602160045260246000fd5b9052565b608081016126aa828661267a565b8351151560208381019190915290930151604082015260600152919050565b6000602082840312156126db57600080fd5b5051919050565b634e487b7160e01b600052604160045260246000fd5b60405160c0810167ffffffffffffffff8111828210171561271b5761271b6126e2565b60405290565b600082601f83011261273257600080fd5b815167ffffffffffffffff8082111561274d5761274d6126e2565b604051601f8301601f19908116603f01168101908282118183101715612775576127756126e2565b8160405283815286602085880101111561278e57600080fd5b61034384602083016020890161259d565b80516127aa81612552565b919050565b80516127aa8161261e565b6000602082840312156127cc57600080fd5b815167ffffffffffffffff808211156127e457600080fd5b9083019060c082860312156127f857600080fd5b6128006126f8565b82518281111561280f57600080fd5b61281b87828601612721565b82525060208301518281111561283057600080fd5b61283c87828601612721565b60208301525060408301518281111561285457600080fd5b61286087828601612721565b6040830152506128726060840161279f565b6060820152612883608084016127af565b608082015260a083015160a082015280935050505092915050565b634e487b7160e01b600052601160045260246000fd5b81810381811115611c3357611c3361289e565b634e487b7160e01b600052601260045260246000fd5b6000826128fa57634e487b7160e01b600052601260045260246000fd5b500490565b60006020828403121561291157600080fd5b815161243f81612552565b6080810161292a828761267a565b93151560208201526040810192909252606090910152919050565b60006020828403121561295757600080fd5b815161243f8161261e565b6001600160a01b03929092168252602082015260400190565b634e487b7160e01b600052603260045260246000fd5b6000600182016129a3576129a361289e565b5060010190565b6040815260006129bd60408301856125c1565b905082151560208301529392505050565b6040815260006129e160408301856125c1565b90508260208301529392505050565b8082028115828204841417611c3357611c3361289e565b80820260008212600160ff1b84141615612a2357612a2361289e565b8181058314821517611c3357611c3361289e565b80820180821115611c3357611c3361289e565b8082018281126000831280158216821582161715612a6a57612a6a61289e565b50509291505056fe4576616c756174696f6e206661696c65643a204e6f7420656e6f75676820766f746573a26469706673582212209150e324053b71f37bef6a04672cc9682f33ba90cc2eba6906ddff3989770fb364736f6c63430008150033",
    "linkReferences": {}
  },
  "methodIdentifiers": {
    "checkNewsValidation(uint256)": "2766b3c9",
    "closeNewsValidation(uint256)": "4122982f",
    "evaluateNews(uint256,bool,uint256)": "8746fe00",
    "getNewsValidation(uint256)": "a7e4130e",
    "i_deadline()": "4628ac39",
    "owner()": "8da5cb5b",
    "renounceOwnership()": "715018a6",
    "setNewsSharingContract(address)": "0724ca71",
    "transferOwnership(address)": "f2fde38b"
  },
  "id": 55
}