{
  "abi": [
    {
      "inputs": [
        {
          "internalType": "contract TrustToken",
          "name": "_trustToken",
          "type": "address"
        },
        {
          "internalType": "uint256",
          "name": "_deadline",
          "type": "uint256"
        }
      ],
      "stateMutability": "nonpayable",
      "type": "constructor"
    },
    {
      "inputs": [],
      "name": "NewsEvaluation_AlreadyVoted",
      "type": "error"
    },
    {
      "inputs": [],
      "name": "NewsEvaluation_InvalidNewsId",
      "type": "error"
    },
    {
      "inputs": [],
      "name": "NewsEvaluation_NewsValidationPeriodEnded",
      "type": "error"
    },
    {
      "inputs": [],
      "name": "NewsEvaluation_UpkeepNotNeeded",
      "type": "error"
    },
    {
      "inputs": [
        {
          "internalType": "address",
          "name": "owner",
          "type": "address"
        }
      ],
      "name": "OwnableInvalidOwner",
      "type": "error"
    },
    {
      "inputs": [
        {
          "internalType": "address",
          "name": "account",
          "type": "address"
        }
      ],
      "name": "OwnableUnauthorizedAccount",
      "type": "error"
    },
    {
      "inputs": [
        {
          "internalType": "uint256",
          "name": "x",
          "type": "uint256"
        },
        {
          "internalType": "uint256",
          "name": "y",
          "type": "uint256"
        }
      ],
      "name": "PRBMath_MulDiv18_Overflow",
      "type": "error"
    },
    {
      "inputs": [
        {
          "internalType": "uint256",
          "name": "x",
          "type": "uint256"
        },
        {
          "internalType": "uint256",
          "name": "y",
          "type": "uint256"
        },
        {
          "internalType": "uint256",
          "name": "denominator",
          "type": "uint256"
        }
      ],
      "name": "PRBMath_MulDiv_Overflow",
      "type": "error"
    },
    {
      "inputs": [],
      "name": "PRBMath_SD59x18_Div_InputTooSmall",
      "type": "error"
    },
    {
      "inputs": [
        {
          "internalType": "SD59x18",
          "name": "x",
          "type": "int256"
        },
        {
          "internalType": "SD59x18",
          "name": "y",
          "type": "int256"
        }
      ],
      "name": "PRBMath_SD59x18_Div_Overflow",
      "type": "error"
    },
    {
      "inputs": [
        {
          "internalType": "SD59x18",
          "name": "x",
          "type": "int256"
        }
      ],
      "name": "PRBMath_SD59x18_IntoUint256_Underflow",
      "type": "error"
    },
    {
      "inputs": [
        {
          "internalType": "SD59x18",
          "name": "x",
          "type": "int256"
        }
      ],
      "name": "PRBMath_SD59x18_Log_InputTooSmall",
      "type": "error"
    },
    {
      "inputs": [],
      "name": "PRBMath_SD59x18_Mul_InputTooSmall",
      "type": "error"
    },
    {
      "inputs": [
        {
          "internalType": "SD59x18",
          "name": "x",
          "type": "int256"
        },
        {
          "internalType": "SD59x18",
          "name": "y",
          "type": "int256"
        }
      ],
      "name": "PRBMath_SD59x18_Mul_Overflow",
      "type": "error"
    },
    {
      "anonymous": false,
      "inputs": [
        {
          "indexed": true,
          "internalType": "uint256",
          "name": "id",
          "type": "uint256"
        },
        {
          "indexed": false,
          "internalType": "enum DataTypes.EvaluationStatus",
          "name": "status",
          "type": "uint8"
        },
        {
          "indexed": false,
          "internalType": "bool",
          "name": "evaluation",
          "type": "bool"
        },
        {
          "indexed": false,
          "internalType": "uint256",
          "name": "confidence",
          "type": "uint256"
        },
        {
          "indexed": false,
          "internalType": "uint256",
          "name": "evaluationsCount",
          "type": "uint256"
        }
      ],
      "name": "NewsEvaluated",
      "type": "event"
    },
    {
      "anonymous": false,
      "inputs": [
        {
          "indexed": true,
          "internalType": "address",
          "name": "previousOwner",
          "type": "address"
        },
        {
          "indexed": true,
          "internalType": "address",
          "name": "newOwner",
          "type": "address"
        }
      ],
      "name": "OwnershipTransferred",
      "type": "event"
    },
    {
      "inputs": [
        {
          "internalType": "uint256",
          "name": "newsId",
          "type": "uint256"
        }
      ],
      "name": "checkNewsValidation",
      "outputs": [
        {
          "internalType": "bool",
          "name": "upkeepNeeded",
          "type": "bool"
        }
      ],
      "stateMutability": "view",
      "type": "function"
    },
    {
      "inputs": [
        {
          "internalType": "uint256",
          "name": "newsId",
          "type": "uint256"
        }
      ],
      "name": "closeNewsValidation",
      "outputs": [
        {
          "internalType": "string",
          "name": "response",
          "type": "string"
        },
        {
          "internalType": "bool",
          "name": "evaluation",
          "type": "bool"
        },
        {
          "internalType": "uint256",
          "name": "confidence",
          "type": "uint256"
        },
        {
          "internalType": "bool",
          "name": "valid",
          "type": "bool"
        }
      ],
      "stateMutability": "nonpayable",
      "type": "function"
    },
    {
      "inputs": [
        {
          "internalType": "uint256",
          "name": "newsId",
          "type": "uint256"
        },
        {
          "internalType": "bool",
          "name": "evaluation",
          "type": "bool"
        },
        {
          "internalType": "uint256",
          "name": "confidence",
          "type": "uint256"
        }
      ],
      "name": "evaluateNews",
      "outputs": [],
      "stateMutability": "nonpayable",
      "type": "function"
    },
    {
      "inputs": [
        {
          "internalType": "uint256",
          "name": "newsId",
          "type": "uint256"
        }
      ],
      "name": "getNewsValidation",
      "outputs": [
        {
          "internalType": "enum DataTypes.EvaluationStatus",
          "name": "",
          "type": "uint8"
        },
        {
          "components": [
            {
              "internalType": "bool",
              "name": "evaluation",
              "type": "bool"
            },
            {
              "internalType": "uint256",
              "name": "confidence",
              "type": "uint256"
            }
          ],
          "internalType": "struct DataTypes.FinalEvaluation",
          "name": "",
          "type": "tuple"
        },
        {
          "internalType": "uint256",
          "name": "",
          "type": "uint256"
        }
      ],
      "stateMutability": "view",
      "type": "function"
    },
    {
      "inputs": [],
      "name": "i_deadline",
      "outputs": [
        {
          "internalType": "uint256",
          "name": "",
          "type": "uint256"
        }
      ],
      "stateMutability": "view",
      "type": "function"
    },
    {
      "inputs": [],
      "name": "owner",
      "outputs": [
        {
          "internalType": "address",
          "name": "",
          "type": "address"
        }
      ],
      "stateMutability": "view",
      "type": "function"
    },
    {
      "inputs": [],
      "name": "renounceOwnership",
      "outputs": [],
      "stateMutability": "nonpayable",
      "type": "function"
    },
    {
      "inputs": [
        {
          "internalType": "contract NewsSharing",
          "name": "_newsSharing",
          "type": "address"
        }
      ],
      "name": "setNewsSharingContract",
      "outputs": [],
      "stateMutability": "nonpayable",
      "type": "function"
    },
    {
      "inputs": [
        {
          "internalType": "address",
          "name": "newOwner",
          "type": "address"
        }
      ],
      "name": "transferOwnership",
      "outputs": [],
      "stateMutability": "nonpayable",
      "type": "function"
    }
  ],
  "bytecode": {
    "object": "0x60c06040523480156200001157600080fd5b5060405162002c4a38038062002c4a8339810160408190526200003491620000ce565b33806200005b57604051631e4fbdf760e01b81526000600482015260240160405180910390fd5b62000066816200007e565b506001600160a01b0390911660805260a0526200010a565b600080546001600160a01b038381166001600160a01b0319831681178455604051919092169283917f8be0079c531659141344cd1fd0a4f28419497f9722a3daafe3b4186f6b6457e09190a35050565b60008060408385031215620000e257600080fd5b82516001600160a01b0381168114620000fa57600080fd5b6020939093015192949293505050565b60805160a051612af1620001596000396000818160fd015261030601526000818161043a01528181610642015281816107ce01528181610ad201528181610d580152610d890152612af16000f3fe608060405234801561001057600080fd5b50600436106100935760003560e01c8063715018a611610066578063715018a61461012d5780638746fe00146101355780638da5cb5b14610148578063a7e4130e14610163578063f2fde38b1461018557600080fd5b80630724ca71146100985780632766b3c9146100ad5780634122982f146100d55780634628ac39146100f8575b600080fd5b6100ab6100a636600461258d565b610198565b005b6100c06100bb3660046125aa565b6101c2565b60405190151581526020015b60405180910390f35b6100e86100e33660046125aa565b61034d565b6040516100cc9493929190612613565b61011f7f000000000000000000000000000000000000000000000000000000000000000081565b6040519081526020016100cc565b6100ab610b6d565b6100ab610143366004612652565b610b81565b6000546040516001600160a01b0390911681526020016100cc565b6101766101713660046125aa565b610f02565b6040516100cc939291906126c2565b6100ab61019336600461258d565b611029565b6101a0611067565b600380546001600160a01b0319166001600160a01b0392909216919091179055565b6000818015806102475750600360009054906101000a90046001600160a01b03166001600160a01b031663d204ff3e6040518163ffffffff1660e01b8152600401602060405180830381865afa158015610220573d6000803e3d6000fd5b505050506040513d601f19601f8201168201806040525081019061024491906126ef565b81115b15610265576040516324f2d78960e21b815260040160405180910390fd5b60035460405163ba53911b60e01b8152600481018590526000916001600160a01b03169063ba53911b90602401600060405180830381865afa1580156102af573d6000803e3d6000fd5b505050506040513d6000823e601f3d908101601f191682016040526102d791908101906127e0565b905060008060008681526001602052604090205460ff1660038111156102ff576102ff61268a565b14905060007f00000000000000000000000000000000000000000000000000000000000000008360a001514261033591906128da565b101590508180156103435750805b9695505050505050565b606060008080848015806103d65750600360009054906101000a90046001600160a01b03166001600160a01b031663d204ff3e6040518163ffffffff1660e01b8152600401602060405180830381865afa1580156103af573d6000803e3d6000fd5b505050506040513d601f19601f820116820180604052508101906103d391906126ef565b81115b156103f4576040516324f2d78960e21b815260040160405180910390fd5b60006103ff876101c2565b90508061041f57604051633f99734160e21b815260040160405180910390fd5b600060016000898152602001908152602001600020905060007f00000000000000000000000000000000000000000000000000000000000000006001600160a01b0316639b9cc1e06040518163ffffffff1660e01b8152600401602060405180830381865afa158015610496573d6000803e3d6000fd5b505050506040513d601f19601f820116820180604052508101906104ba91906126ef565b90506001811115806104d957506104d2600282612903565b6003830154105b156106e057815460ff19166002178255600354604051630d2d56f160e31b8152600481018b9052610666916001600160a01b03169063696ab788906024015b602060405180830381865afa158015610535573d6000803e3d6000fd5b505050506040513d601f19601f820116820180604052508101906105599190612925565b604080516060810190915284548590829060ff16600381111561057e5761057e61268a565b600381111561058f5761058f61268a565b8152604080518082018252600184015460ff161515815260028401546020828101919091528084019190915260038401805483518184028101840185528181529390940193909160009084015b82821015610638576000848152602090819020604080516060810182526002860290920180546001600160a01b0381168452600160a01b900460ff161515838501526001908101549183019190915290835290920191016105dc565b50505050815250507f0000000000000000000000000000000000000000000000000000000000000000611094565b815460038301546040518b927f4805ff01e36a5cd4f79f6f0143723d6c9ee46604ad61e0659022597e6496f65f926106a89260ff909216916000918291612942565b60405180910390a26000806000604051806060016040528060238152602001612a99602391399a5091985096509450610b6592505050565b604080516060810190915282546107f291908490829060ff16600381111561070a5761070a61268a565b600381111561071b5761071b61268a565b8152604080518082018252600184015460ff161515815260028401546020828101919091528084019190915260038401805483518184028101840185528181529390940193909160009084015b828210156107c4576000848152602090819020604080516060810182526002860290920180546001600160a01b0381168452600160a01b900460ff16151583850152600190810154918301919091529083529092019101610768565b50505050815250507f0000000000000000000000000000000000000000000000000000000000000000611281565b60408051808201909152600c81526b022bb30b63ab0ba34b7b71d160a51b602082015292995090975095506108279088611311565b6108556040518060400160405280600c81526020016b021b7b73334b232b731b29d160a51b8152508761135a565b61087e6040518060400160405280600781526020016602b30b634b21d160cd1b81525086611311565b8461094357600354604051630d2d56f160e31b8152600481018b90526108b6916001600160a01b03169063696ab78890602401610518565b815460ff191660039081178355808301546040518b927f4805ff01e36a5cd4f79f6f0143723d6c9ee46604ad61e0659022597e6496f65f926108fc926000918291612942565b60405180910390a250506040805180820190915260168152754576616c756174696f6e206661696c65643a2054696560501b6020820152955060009450849350610b659050565b60408051808201825288151580825260209091018890526001848101805460ff1990811690931790556002850189905584549091161783556003549051630d2d56f160e31b8152600481018b9052610af6916001600160a01b03169063696ab78890602401602060405180830381865afa1580156109c5573d6000803e3d6000fd5b505050506040513d601f19601f820116820180604052508101906109e99190612925565b604080516060810190915284548590829060ff166003811115610a0e57610a0e61268a565b6003811115610a1f57610a1f61268a565b8152604080518082018252600184015460ff161515815260028401546020828101919091528084019190915260038401805483518184028101840185528181529390940193909160009084015b82821015610ac8576000848152602090819020604080516060810182526002860290920180546001600160a01b0381168452600160a01b900460ff16151583850152600190810154918301919091529083529092019101610a6c565b50505050815250507f000000000000000000000000000000000000000000000000000000000000000061139f565b815460038301546040518b927f4805ff01e36a5cd4f79f6f0143723d6c9ee46604ad61e0659022597e6496f65f92610b379260ff909216918c918c91612942565b60405180910390a25050604080518082019091526009815268115d985b1d585d195960ba1b60208201529550505b509193509193565b610b75611067565b610b7f60006113e9565b565b82801580610c045750600360009054906101000a90046001600160a01b03166001600160a01b031663d204ff3e6040518163ffffffff1660e01b8152600401602060405180830381865afa158015610bdd573d6000803e3d6000fd5b505050506040513d601f19601f82011682018060405250810190610c0191906126ef565b81115b15610c22576040516324f2d78960e21b815260040160405180910390fd5b600084815260026020908152604080832033845290915290205460ff1615610c5d576040516318c16ab360e01b815260040160405180910390fd5b60035460405163867e159360e01b8152600481018690526001600160a01b039091169063867e159390602401602060405180830381865afa158015610ca6573d6000803e3d6000fd5b505050506040513d601f19601f82011682018060405250810190610cca919061296b565b610d135760405162461bcd60e51b815260206004820152601560248201527413995ddcc81a5cc81b9bdd08199bdc9dd85c991959605a1b60448201526064015b60405180910390fd5b600084815260016020526040812090815460ff166003811115610d3857610d3861268a565b14610d56576040516304ff060960e21b815260040160405180910390fd5b7f00000000000000000000000000000000000000000000000000000000000000006001600160a01b031663db11325d33307f00000000000000000000000000000000000000000000000000000000000000006001600160a01b0316634fee5a5b6040518163ffffffff1660e01b8152600401602060405180830381865afa158015610de5573d6000803e3d6000fd5b505050506040513d601f19601f82011682018060405250810190610e0991906126ef565b6040516001600160e01b031960e086901b1681526001600160a01b0393841660048201529290911660248301526044820152606401600060405180830381600087803b158015610e5857600080fd5b505af1158015610e6c573d6000803e3d6000fd5b50505060009586525060026020818152604080882033808a52908352818920805460ff1916600190811790915582516060810184529182529715158184019081529181019687526003909401805480890182559089529190972092519102909101805495511515600160a01b026001600160a81b03199096166001600160a01b0392909216919091179490941784555051910155565b6040805180820190915260008082526020820181905290600083815260016020526040808220815160608101909252805483929190829060ff166003811115610f4d57610f4d61268a565b6003811115610f5e57610f5e61268a565b8152604080518082018252600184015460ff161515815260028401546020828101919091528084019190915260038401805483518184028101840185528181529390940193909160009084015b82821015611007576000848152602090819020604080516060810182526002860290920180546001600160a01b0381168452600160a01b900460ff16151583850152600190810154918301919091529083529092019101610fab565b5050509152505080516020820151604090920151519097919650945092505050565b611031611067565b6001600160a01b03811661105b57604051631e4fbdf760e01b815260006004820152602401610d0a565b611064816113e9565b50565b6000546001600160a01b03163314610b7f5760405163118cdaa760e01b8152336004820152602401610d0a565b806001600160a01b031663a9059cbb84836001600160a01b031663090769956040518163ffffffff1660e01b8152600401602060405180830381865afa1580156110e2573d6000803e3d6000fd5b505050506040513d601f19601f8201168201806040525081019061110691906126ef565b6040518363ffffffff1660e01b8152600401611123929190612988565b6020604051808303816000875af1158015611142573d6000803e3d6000fd5b505050506040513d601f19601f82011682018060405250810190611166919061296b565b50604082015160005b815181101561127a57826001600160a01b031663a9059cbb838381518110611199576111996129a1565b602002602001015160000151856001600160a01b0316634fee5a5b6040518163ffffffff1660e01b8152600401602060405180830381865afa1580156111e3573d6000803e3d6000fd5b505050506040513d601f19601f8201168201806040525081019061120791906126ef565b6040518363ffffffff1660e01b8152600401611224929190612988565b6020604051808303816000875af1158015611243573d6000803e3d6000fd5b505050506040513d601f19601f82011682018060405250810190611267919061296b565b5080611272816129b7565b91505061116f565b5050505050565b6000806000808560400151905060008061129b8388611439565b9150915080602001518260200151036112c157600080600095509550955050505061130a565b80602001518260200151119550856112ec57806060015181604001516112e79190612903565b611300565b816060015182604001516113009190612903565b9450600193505050505b9250925092565b61135682826040516024016113279291906129d0565b60408051601f198184030181529190526020810180516001600160e01b031663c3b5563560e01b17905261161e565b5050565b61135682826040516024016113709291906129f4565b60408051601f198184030181529190526020810180516001600160e01b03166309710a9d60e41b17905261161e565b60006113aa8361163f565b90506113d760405180604001604052806009815260200168022b73a3937b83c9d160bd1b8152508261135a565b6113e384848484611768565b50505050565b600080546001600160a01b038381166001600160a01b0319831681178455604051919092169283917f8be0079c531659141344cd1fd0a4f28419497f9722a3daafe3b4186f6b6457e09190a35050565b61146660405180608001604052806000151581526020016000815260200160008152602001600081525090565b61149360405180608001604052806000151581526020016000815260200160008152602001600081525090565b6040518060800160405280600115158152602001600081526020016000815260200160008152509150604051806080016040528060001515815260200160008152602001600081526020016000815250905060005b8451811015611616576000858281518110611505576115056129a1565b602002602001015160400151856001600160a01b0316636a4b783d888581518110611532576115326129a1565b6020908102919091010151516040516001600160e01b031960e084901b1681526001600160a01b039091166004820152602401602060405180830381865afa158015611582573d6000803e3d6000fd5b505050506040513d601f19601f820116820180604052508101906115a691906126ef565b6115b09190612a16565b90506116038683815181106115c7576115c76129a1565b6020026020010151602001516115dd57836115df565b845b828885815181106115f2576115f26129a1565b602002602001015160400151611aa7565b508061160e816129b7565b9150506114e8565b509250929050565b80516a636f6e736f6c652e6c6f67602083016000808483855afa5050505050565b600080600061164d84611aeb565b9092509050662386f26fc1000061166261255a565b60005b838110156116be5761169583868360038110611683576116836129a1565b60200201516116929190612a2d565b90565b8282600381106116a7576116a76129a1565b6020020152806116b6816129b7565b915050611665565b506729a2241af62c00006000805b858110156117325761171e6117176116fa858785600381106116f0576116f06129a1565b6020020151611c39565b86846003811061170c5761170c6129a1565b602002015190611c5f565b8390611d2c565b91508061172a816129b7565b9150506116cc565b5061174681670de0b6b3a763ffff19611c5f565b90508361175282611d3b565b61175c9190612903565b98975050505050505050565b60008360200151905060008460400151905060008080866001600160a01b031663090769956040518163ffffffff1660e01b8152600401602060405180830381865afa1580156117bc573d6000803e3d6000fd5b505050506040513d601f19601f820116820180604052508101906117e091906126ef565b90506000876001600160a01b0316634fee5a5b6040518163ffffffff1660e01b8152600401602060405180830381865afa158015611822573d6000803e3d6000fd5b505050506040513d601f19601f8201168201806040525081019061184691906126ef565b8651909150156118cb5760405163a9059cbb60e01b8152600093506001600160a01b0389169063a9059cbb90611882908d908690600401612988565b6020604051808303816000875af11580156118a1573d6000803e3d6000fd5b505050506040513d601f19601f820116820180604052508101906118c5919061296b565b506118cf565b8192505b6118e38a6001606489600001518b8d611d62565b60005b8551811015611a88576000868281518110611903576119036129a1565b6020026020010151905061192b8160000151826020015183604001518b600001518d8f611d62565b8760000151151581602001511515036119c757604081015161194d9087612a5d565b815160405163a9059cbb60e01b81529197506001600160a01b038c169163a9059cbb9161197e918790600401612988565b6020604051808303816000875af115801561199d573d6000803e3d6000fd5b505050506040513d601f19601f820116820180604052508101906119c1919061296b565b50611a75565b600060648260400151856119db9190612a16565b6119e59190612903565b90506119f18187612a5d565b82519096506001600160a01b038c169063a9059cbb90611a128460646128da565b6040518363ffffffff1660e01b8152600401611a2f929190612988565b6020604051808303816000875af1158015611a4e573d6000803e3d6000fd5b505050506040513d601f19601f82011682018060405250810190611a72919061296b565b50505b5080611a80816129b7565b9150506118e6565b50611a9b8a86886000015186888d611e86565b50505050505050505050565b8183602001818151611ab99190612a5d565b905250604083018051829190611ad0908390612a5d565b90525060608301805190611ae3826129b7565b905250505050565b611af361255a565b6040820151600090815b8151811015611bcb57818181518110611b1857611b186129a1565b60200260200101516020015115611b7357818181518110611b3b57611b3b6129a1565b60200260200101516040015184600060038110611b5a57611b5a6129a1565b60200201818151611b6b9190612a5d565b905250611bb9565b818181518110611b8557611b856129a1565b60200260200101516040015184600160038110611ba457611ba46129a1565b60200201818151611bb59190612a5d565b9052505b80611bc3816129b7565b915050611afd565b50805183518490611bdd908390612903565b9052508051602084018051611bf3908390612903565b90525060208301518351611c079190612a5d565b611c129060646128da565b60408401819052839015611c27576003611c2a565b60025b909560ff909116945092505050565b6000611c56611c478461214a565b611c508461214a565b906122b9565b90505b92915050565b60008282600160ff1b821480611c785750600160ff1b81145b15611c965760405163a6070c2560e01b815260040160405180910390fd5b60008060008412611ca75783611cac565b836000035b915060008312611cbc5782611cc1565b826000035b90506000611ccf8383612366565b90506001600160ff1b03811115611d035760405163120b5b4360e01b81526004810189905260248101889052604401610d0a565b60001985851813611d1f81611d1b5782600003611692565b8290565b9998505050505050505050565b6000611c566116928385612a70565b60008181811215611c5957604051632463f3d560e01b815260048101849052602401610d0a565b604051636a4b783d60e01b81526001600160a01b03878116600483015260009190831690636a4b783d90602401602060405180830381865afa158015611dac573d6000803e3d6000fd5b505050506040513d601f19601f82011682018060405250810190611dd091906126ef565b90508084151587151503611dff576000611deb83888761241c565b9050611df78183612a5d565b915050611e1c565b6000611e0c83888761246c565b9050611e1881836128da565b9150505b60405163111da0bf60e31b81526001600160a01b038416906388ed05f890611e4a908b908590600401612988565b600060405180830381600087803b158015611e6457600080fd5b505af1158015611e78573d6000803e3d6000fd5b505050505050505050505050565b60008415611f3657611e99606484612a5d565b9250600083611ea9866064612a16565b611eb39190612903565b9050611ebf8183612a5d565b60405163a9059cbb60e01b81529092506001600160a01b0384169063a9059cbb90611ef0908b908590600401612988565b6020604051808303816000875af1158015611f0f573d6000803e3d6000fd5b505050506040513d601f19601f82011682018060405250810190611f33919061296b565b50505b60005b865181101561203e576000878281518110611f5657611f566129a1565b60200260200101519050861515816020015115150361202b57600085878360400151611f829190612a16565b611f8c9190612903565b9050846001600160a01b031663a9059cbb8a8581518110611faf57611faf6129a1565b602002602001015160000151836040518363ffffffff1660e01b8152600401611fd9929190612988565b6020604051808303816000875af1158015611ff8573d6000803e3d6000fd5b505050506040513d601f19601f8201168201806040525081019061201c919061296b565b506120278185612a5d565b9350505b5080612036816129b7565b915050611f39565b5084156120c5576001600160a01b03821663a9059cbb8861205f84886128da565b6040518363ffffffff1660e01b815260040161207c929190612988565b6020604051808303816000875af115801561209b573d6000803e3d6000fd5b505050506040513d601f19601f820116820180604052508101906120bf919061296b565b50612141565b6001600160a01b03821663a9059cbb836120df84886128da565b6040518363ffffffff1660e01b81526004016120fc929190612988565b6020604051808303816000875af115801561211b573d6000803e3d6000fd5b505050506040513d601f19601f8201168201806040525081019061213f919061296b565b505b50505050505050565b6000818181136121705760405163059b101b60e01b815260048101849052602401610d0a565b6000670de0b6b3a76400008212612189575060016121af565b50600019816ec097ce7bc90715b34b9f1000000000816121ab576121ab6128ed565b0591505b600061223b670de0b6b3a7640000840560016fffffffffffffffffffffffffffffffff821160071b91821c67ffffffffffffffff811160061b90811c63ffffffff811160051b90811c61ffff811160041b90811c60ff8111600390811b91821c600f811160021b90811c918211871b91821c969096119490961792909217171791909117919091171790565b9050670de0b6b3a7640000810283821d670de0b6b3a763ffff198101612268575091909102949350505050565b671bc16d674ec800006706f05b59d3b200005b60008113156122ae57670de0b6b3a76400008380020592508183126122a6579283019260019290921d915b60011d61227b565b50918402918261175c565b60008282600160ff1b8214806122d25750600160ff1b81145b156122f0576040516309fe2b4560e41b815260040160405180910390fd5b600080600084126123015783612306565b836000035b915060008312612316578261231b565b826000035b9050600061233283670de0b6b3a764000084612486565b90506001600160ff1b03811115611d035760405163d49c26b360e01b81526004810189905260248101889052604401610d0a565b600080806000198486098486029250828110838203039150508060000361239a5750670de0b6b3a764000090049050611c59565b670de0b6b3a764000081106123cc57604051635173648d60e01b81526004810186905260248101859052604401610d0a565b6000670de0b6b3a764000085870962040000818503049310909103600160ee1b02919091177faccb18165bd6fe31ae1cf318dc5b51eee0e1ba569b88cd74c1773b91fac106690291505092915050565b6000612710600261242e8460646128da565b6124389190612903565b846124448760646128da565b61244e9190612a16565b6124589190612a16565b6124629190612903565b90505b9392505050565b600061271061247c8360646128da565b61244e8587612a16565b60008080600019858709858702925082811083820303915050806000036124c0578382816124b6576124b66128ed565b0492505050612465565b8381106124f157604051630c740aef60e31b8152600481018790526024810186905260448101859052606401610d0a565b60008486880960026001871981018816978890046003810283188082028403028082028403028082028403028082028403028082028403029081029092039091026000889003889004909101858311909403939093029303949094049190911702949350505050565b60405180606001604052806003906020820280368337509192915050565b6001600160a01b038116811461106457600080fd5b60006020828403121561259f57600080fd5b813561246581612578565b6000602082840312156125bc57600080fd5b5035919050565b60005b838110156125de5781810151838201526020016125c6565b50506000910152565b600081518084526125ff8160208601602086016125c3565b601f01601f19169290920160200192915050565b60808152600061262660808301876125e7565b94151560208301525060408101929092521515606090910152919050565b801515811461106457600080fd5b60008060006060848603121561266757600080fd5b83359250602084013561267981612644565b929592945050506040919091013590565b634e487b7160e01b600052602160045260246000fd5b600481106126be57634e487b7160e01b600052602160045260246000fd5b9052565b608081016126d082866126a0565b8351151560208381019190915290930151604082015260600152919050565b60006020828403121561270157600080fd5b5051919050565b634e487b7160e01b600052604160045260246000fd5b60405160c0810167ffffffffffffffff8111828210171561274157612741612708565b60405290565b600082601f83011261275857600080fd5b815167ffffffffffffffff8082111561277357612773612708565b604051601f8301601f19908116603f0116810190828211818310171561279b5761279b612708565b816040528381528660208588010111156127b457600080fd5b6103438460208301602089016125c3565b80516127d081612578565b919050565b80516127d081612644565b6000602082840312156127f257600080fd5b815167ffffffffffffffff8082111561280a57600080fd5b9083019060c0828603121561281e57600080fd5b61282661271e565b82518281111561283557600080fd5b61284187828601612747565b82525060208301518281111561285657600080fd5b61286287828601612747565b60208301525060408301518281111561287a57600080fd5b61288687828601612747565b604083015250612898606084016127c5565b60608201526128a9608084016127d5565b608082015260a083015160a082015280935050505092915050565b634e487b7160e01b600052601160045260246000fd5b81810381811115611c5957611c596128c4565b634e487b7160e01b600052601260045260246000fd5b60008261292057634e487b7160e01b600052601260045260246000fd5b500490565b60006020828403121561293757600080fd5b815161246581612578565b6080810161295082876126a0565b93151560208201526040810192909252606090910152919050565b60006020828403121561297d57600080fd5b815161246581612644565b6001600160a01b03929092168252602082015260400190565b634e487b7160e01b600052603260045260246000fd5b6000600182016129c9576129c96128c4565b5060010190565b6040815260006129e360408301856125e7565b905082151560208301529392505050565b604081526000612a0760408301856125e7565b90508260208301529392505050565b8082028115828204841417611c5957611c596128c4565b80820260008212600160ff1b84141615612a4957612a496128c4565b8181058314821517611c5957611c596128c4565b80820180821115611c5957611c596128c4565b8082018281126000831280158216821582161715612a9057612a906128c4565b50509291505056fe4576616c756174696f6e206661696c65643a204e6f7420656e6f75676820766f746573a2646970667358221220d1e13b1001e06392201f0153b00f7bc724292113f9b4c9cdae63569d015117d864736f6c63430008150033",
    "linkReferences": {}
  },
  "methodIdentifiers": {
    "checkNewsValidation(uint256)": "2766b3c9",
    "closeNewsValidation(uint256)": "4122982f",
    "evaluateNews(uint256,bool,uint256)": "8746fe00",
    "getNewsValidation(uint256)": "a7e4130e",
    "i_deadline()": "4628ac39",
    "owner()": "8da5cb5b",
    "renounceOwnership()": "715018a6",
    "setNewsSharingContract(address)": "0724ca71",
    "transferOwnership(address)": "f2fde38b"
  },
  "id": 55
}