{
  "abi": [
    {
      "inputs": [],
      "name": "NewsEvaluation_NewsAlreadyValidated",
      "type": "error"
    },
    {
      "inputs": [],
      "name": "NewsEvaluation_NewsValidationNotStarted",
      "type": "error"
    },
    {
      "anonymous": false,
      "inputs": [
        {
          "indexed": true,
          "internalType": "uint256",
          "name": "id",
          "type": "uint256"
        },
        {
          "indexed": true,
          "internalType": "address",
          "name": "evaluator",
          "type": "address"
        },
        {
          "indexed": false,
          "internalType": "bool",
          "name": "evaluation",
          "type": "bool"
        },
        {
          "indexed": false,
          "internalType": "uint256",
          "name": "confidence",
          "type": "uint256"
        },
        {
          "indexed": false,
          "internalType": "uint256",
          "name": "evaluationsCount",
          "type": "uint256"
        }
      ],
      "name": "NewsEvaluated",
      "type": "event"
    },
    {
      "anonymous": false,
      "inputs": [
        {
          "indexed": true,
          "internalType": "uint256",
          "name": "id",
          "type": "uint256"
        },
        {
          "indexed": true,
          "internalType": "address",
          "name": "initiator",
          "type": "address"
        },
        {
          "indexed": false,
          "internalType": "uint256",
          "name": "deadline",
          "type": "uint256"
        }
      ],
      "name": "NewsValidationStarted",
      "type": "event"
    },
    {
      "inputs": [],
      "name": "DEADLINE",
      "outputs": [
        {
          "internalType": "uint256",
          "name": "",
          "type": "uint256"
        }
      ],
      "stateMutability": "view",
      "type": "function"
    },
    {
      "inputs": [
        {
          "internalType": "uint256",
          "name": "newsId",
          "type": "uint256"
        },
        {
          "internalType": "bool",
          "name": "evaluation",
          "type": "bool"
        },
        {
          "internalType": "uint256",
          "name": "confidence",
          "type": "uint256"
        }
      ],
      "name": "evaluateNews",
      "outputs": [],
      "stateMutability": "nonpayable",
      "type": "function"
    },
    {
      "inputs": [
        {
          "internalType": "uint256",
          "name": "newsId",
          "type": "uint256"
        }
      ],
      "name": "getNewsValidation",
      "outputs": [
        {
          "internalType": "address",
          "name": "",
          "type": "address"
        },
        {
          "internalType": "uint256",
          "name": "",
          "type": "uint256"
        },
        {
          "internalType": "enum DataTypes.EvaluationStatus",
          "name": "",
          "type": "uint8"
        },
        {
          "components": [
            {
              "internalType": "bool",
              "name": "evaluation",
              "type": "bool"
            },
            {
              "internalType": "uint256",
              "name": "confidence",
              "type": "uint256"
            }
          ],
          "internalType": "struct DataTypes.Evaluation",
          "name": "",
          "type": "tuple"
        },
        {
          "internalType": "uint256",
          "name": "",
          "type": "uint256"
        }
      ],
      "stateMutability": "view",
      "type": "function"
    },
    {
      "inputs": [
        {
          "internalType": "uint256",
          "name": "newsId",
          "type": "uint256"
        }
      ],
      "name": "startNewsValidation",
      "outputs": [],
      "stateMutability": "nonpayable",
      "type": "function"
    }
  ],
  "bytecode": {
    "object": "0x608060405234801561001057600080fd5b506103fb806100206000396000f3fe608060405234801561001057600080fd5b506004361061004c5760003560e01c80638746fe0014610051578063a082c86e14610066578063a7e4130e14610083578063e1532082146100a7575b600080fd5b61006461005f3660046102d5565b6100ba565b005b6100706201518081565b6040519081526020015b60405180910390f35b610096610091366004610312565b6101a7565b60405161007a959493929190610341565b6100646100b5366004610312565b610229565b600083815260208190526040902060028082015460ff1660038111156100e2576100e261032b565b14610100576040516311b48ef360e11b815260040160405180910390fd5b60408051808201825284151581526020808201858152336000908152600586019092529281209151825460ff191690151517825591516001918201556006830180549192909161015190849061039e565b90915550506006810154604080518515158152602081018590528082019290925251339186917f1263c0a2ad6387689f3f6606e9c69312e9d3fda97277fca63f3218f0ce63e1c49181900360600190a350505050565b60008060006101cb6040518060400160405280600015158152602001600081525090565b505050600091825250602081815260409182902080546001820154600283015460068401548651808801909752600385015460ff90811615158852600490950154958701959095526001600160a01b03909216959094929091169290565b600081815260208190526040812090600282015460ff1660038111156102515761025161032b565b1461026f57604051635d5c7d4160e01b815260040160405180910390fd5b6002818101805460ff1916909117905580546001600160a01b031916339081178255620151806001830181905560405190815283907f2f6da264c7d7fabe893a27bb7dc0ebff0d24865d1034d6756ff352f004ba47db9060200160405180910390a35050565b6000806000606084860312156102ea57600080fd5b833592506020840135801515811461030157600080fd5b929592945050506040919091013590565b60006020828403121561032457600080fd5b5035919050565b634e487b7160e01b600052602160045260246000fd5b6001600160a01b03861681526020810185905260c081016004851061037657634e487b7160e01b600052602160045260246000fd5b6040820194909452825115156060820152602090920151608083015260a09091015292915050565b808201808211156103bf57634e487b7160e01b600052601160045260246000fd5b9291505056fea26469706673582212201ae5a9d38ed217bd6b07ac5f26156a59ba137eaa944a5db4e76e0d7ae847e51f64736f6c63430008150033",
    "linkReferences": {}
  },
  "methodIdentifiers": {
    "DEADLINE()": "a082c86e",
    "evaluateNews(uint256,bool,uint256)": "8746fe00",
    "getNewsValidation(uint256)": "a7e4130e",
    "startNewsValidation(uint256)": "e1532082"
  },
  "id": 23
}