{
  "abi": [
    {
      "inputs": [
        {
          "internalType": "contract TrustToken",
          "name": "_trustToken",
          "type": "address"
        }
      ],
      "stateMutability": "nonpayable",
      "type": "constructor"
    },
    {
      "inputs": [],
      "name": "NewsSharing_NoParentNewsWithThatId",
      "type": "error"
    },
    {
      "inputs": [
        {
          "internalType": "address",
          "name": "owner",
          "type": "address"
        }
      ],
      "name": "OwnableInvalidOwner",
      "type": "error"
    },
    {
      "inputs": [
        {
          "internalType": "address",
          "name": "account",
          "type": "address"
        }
      ],
      "name": "OwnableUnauthorizedAccount",
      "type": "error"
    },
    {
      "anonymous": false,
      "inputs": [
        {
          "indexed": true,
          "internalType": "uint256",
          "name": "id",
          "type": "uint256"
        },
        {
          "indexed": true,
          "internalType": "address",
          "name": "sender",
          "type": "address"
        },
        {
          "indexed": false,
          "internalType": "string",
          "name": "title",
          "type": "string"
        },
        {
          "indexed": false,
          "internalType": "string",
          "name": "ipfsCid",
          "type": "string"
        },
        {
          "indexed": false,
          "internalType": "string",
          "name": "chatName",
          "type": "string"
        },
        {
          "indexed": false,
          "internalType": "uint256",
          "name": "parentNews",
          "type": "uint256"
        }
      ],
      "name": "NewsCreated",
      "type": "event"
    },
    {
      "anonymous": false,
      "inputs": [
        {
          "indexed": true,
          "internalType": "address",
          "name": "previousOwner",
          "type": "address"
        },
        {
          "indexed": true,
          "internalType": "address",
          "name": "newOwner",
          "type": "address"
        }
      ],
      "name": "OwnershipTransferred",
      "type": "event"
    },
    {
      "inputs": [
        {
          "internalType": "string",
          "name": "title",
          "type": "string"
        },
        {
          "internalType": "string",
          "name": "ipfsCid",
          "type": "string"
        },
        {
          "internalType": "string",
          "name": "chatName",
          "type": "string"
        },
        {
          "internalType": "uint256",
          "name": "parentId",
          "type": "uint256"
        }
      ],
      "name": "createNews",
      "outputs": [
        {
          "internalType": "uint256",
          "name": "id",
          "type": "uint256"
        }
      ],
      "stateMutability": "nonpayable",
      "type": "function"
    },
    {
      "inputs": [
        {
          "internalType": "uint256",
          "name": "index",
          "type": "uint256"
        }
      ],
      "name": "getNews",
      "outputs": [
        {
          "components": [
            {
              "internalType": "string",
              "name": "title",
              "type": "string"
            },
            {
              "internalType": "string",
              "name": "ipfsCid",
              "type": "string"
            },
            {
              "internalType": "string",
              "name": "chatName",
              "type": "string"
            },
            {
              "internalType": "address",
              "name": "sharer",
              "type": "address"
            },
            {
              "internalType": "bool",
              "name": "isForwarded",
              "type": "bool"
            },
            {
              "internalType": "uint256",
              "name": "timestamp",
              "type": "uint256"
            }
          ],
          "internalType": "struct DataTypes.News",
          "name": "news",
          "type": "tuple"
        }
      ],
      "stateMutability": "view",
      "type": "function"
    },
    {
      "inputs": [
        {
          "internalType": "uint256",
          "name": "index",
          "type": "uint256"
        }
      ],
      "name": "getSharerOf",
      "outputs": [
        {
          "internalType": "address",
          "name": "sharer",
          "type": "address"
        }
      ],
      "stateMutability": "view",
      "type": "function"
    },
    {
      "inputs": [],
      "name": "getTotalNews",
      "outputs": [
        {
          "internalType": "uint256",
          "name": "lenght",
          "type": "uint256"
        }
      ],
      "stateMutability": "view",
      "type": "function"
    },
    {
      "inputs": [
        {
          "internalType": "uint256",
          "name": "index",
          "type": "uint256"
        }
      ],
      "name": "isForwarded",
      "outputs": [
        {
          "internalType": "bool",
          "name": "forwarded",
          "type": "bool"
        }
      ],
      "stateMutability": "view",
      "type": "function"
    },
    {
      "inputs": [],
      "name": "owner",
      "outputs": [
        {
          "internalType": "address",
          "name": "",
          "type": "address"
        }
      ],
      "stateMutability": "view",
      "type": "function"
    },
    {
      "inputs": [],
      "name": "renounceOwnership",
      "outputs": [],
      "stateMutability": "nonpayable",
      "type": "function"
    },
    {
      "inputs": [
        {
          "internalType": "contract NewsEvaluation",
          "name": "_newsEvaluation",
          "type": "address"
        }
      ],
      "name": "setNewsEvaluationContract",
      "outputs": [],
      "stateMutability": "nonpayable",
      "type": "function"
    },
    {
      "inputs": [
        {
          "internalType": "address",
          "name": "newOwner",
          "type": "address"
        }
      ],
      "name": "transferOwnership",
      "outputs": [],
      "stateMutability": "nonpayable",
      "type": "function"
    }
  ],
  "bytecode": {
    "object": "0x60a06040523480156200001157600080fd5b50604051620010a8380380620010a88339810160408190526200003491620001d0565b33806200005b57604051631e4fbdf760e01b81526000600482015260240160405180910390fd5b620000668162000180565b506001600160a01b03811660809081526040805160e081018252600060c082018181528252825160208181018552828252808401919091528351908101845281815292820192909252606081018290529182018190524260a08301526001805480820182559152815160059091027fb10e2d527612073b26eecdfd717e6a320cf44b4afac2b0732d9fcbe2b7fa0cf601908190620001059082620002a7565b50602082015160018201906200011c9082620002a7565b5060408201516002820190620001339082620002a7565b50606082015160038201805460808501511515600160a01b026001600160a81b03199091166001600160a01b039093169290921791909117905560a0909101516004909101555062000373565b600080546001600160a01b038381166001600160a01b0319831681178455604051919092169283917f8be0079c531659141344cd1fd0a4f28419497f9722a3daafe3b4186f6b6457e09190a35050565b600060208284031215620001e357600080fd5b81516001600160a01b0381168114620001fb57600080fd5b9392505050565b634e487b7160e01b600052604160045260246000fd5b600181811c908216806200022d57607f821691505b6020821081036200024e57634e487b7160e01b600052602260045260246000fd5b50919050565b601f821115620002a257600081815260208120601f850160051c810160208610156200027d5750805b601f850160051c820191505b818110156200029e5782815560010162000289565b5050505b505050565b81516001600160401b03811115620002c357620002c362000202565b620002db81620002d4845462000218565b8462000254565b602080601f831160018114620003135760008415620002fa5750858301515b600019600386901b1c1916600185901b1785556200029e565b600085815260208120601f198616915b82811015620003445788860151825594840194600190910190840162000323565b5085821015620003635787850151600019600388901b60f8161c191681555b5050505050600190811b01905550565b608051610d12620003966000396000818161024b01526102910152610d126000f3fe608060405234801561001057600080fd5b50600436106100935760003560e01c80638da5cb5b116100665780638da5cb5b14610108578063a651bca514610119578063ba53911b1461013a578063d204ff3e1461015a578063f2fde38b1461016257600080fd5b8063696ab78814610098578063715018a6146100c857806378b78a10146100d2578063867e1593146100e5575b600080fd5b6100ab6100a636600461089c565b610175565b6040516001600160a01b0390911681526020015b60405180910390f35b6100d06101ad565b005b6100d06100e03660046108ca565b6101c1565b6100f86100f336600461089c565b6101eb565b60405190151581526020016100bf565b6000546001600160a01b03166100ab565b61012c610127366004610937565b610224565b6040519081526020016100bf565b61014d61014836600461089c565b61056b565b6040516100bf9190610a20565b61012c6107c7565b6100d06101703660046108ca565b6107dc565b60006001828154811061018a5761018a610aad565b60009182526020909120600360059092020101546001600160a01b031692915050565b6101b561081f565b6101bf600061084c565b565b6101c961081f565b600280546001600160a01b0319166001600160a01b0392909216919091179055565b60006001828154811061020057610200610aad565b6000918252602090912060059091020160030154600160a01b900460ff1692915050565b600154600090821061024957604051638457540960e01b815260040160405180910390fd5b7f00000000000000000000000000000000000000000000000000000000000000006001600160a01b031663db11325d33600260009054906101000a90046001600160a01b03167f00000000000000000000000000000000000000000000000000000000000000006001600160a01b031663090769956040518163ffffffff1660e01b8152600401602060405180830381865afa1580156102ed573d6000803e3d6000fd5b505050506040513d601f19601f820116820180604052508101906103119190610ac3565b6040516001600160e01b031960e086901b1681526001600160a01b0393841660048201529290911660248301526044820152606401600060405180830381600087803b15801561036057600080fd5b505af1158015610374573d6000803e3d6000fd5b5050505060006040518060c001604052808a8a8080601f016020809104026020016040519081016040528093929190818152602001838380828437600092019190915250505090825250604080516020601f8b0181900481028201810190925289815291810191908a908a9081908401838280828437600092019190915250505090825250604080516020601f890181900481028201810190925287815291810191908890889081908401838280828437600092018290525093855250503360208401525085151560408301524260609092019190915260018054808201825591528151919250829160059091027fb10e2d527612073b26eecdfd717e6a320cf44b4afac2b0732d9fcbe2b7fa0cf6019081906104919082610b7b565b50602082015160018201906104a69082610b7b565b50604082015160028201906104bb9082610b7b565b50606082015160038201805460808501511515600160a01b026001600160a81b03199091166001600160a01b039093169290921791909117905560a0909101516004909101556001805461050f9190610c3b565b9150336001600160a01b0316827f5ea8ff8770f69d68b1bd1ecc404b596818e23b02d8db2845fb56035cccc67a398b8b8b8b8b8b8b6040516105579796959493929190610c8b565b60405180910390a350979650505050505050565b6105af6040518060c0016040528060608152602001606081526020016060815260200160006001600160a01b03168152602001600015158152602001600081525090565b600182815481106105c2576105c2610aad565b90600052602060002090600502016040518060c00160405290816000820180546105eb90610af2565b80601f016020809104026020016040519081016040528092919081815260200182805461061790610af2565b80156106645780601f1061063957610100808354040283529160200191610664565b820191906000526020600020905b81548152906001019060200180831161064757829003601f168201915b5050505050815260200160018201805461067d90610af2565b80601f01602080910402602001604051908101604052809291908181526020018280546106a990610af2565b80156106f65780601f106106cb576101008083540402835291602001916106f6565b820191906000526020600020905b8154815290600101906020018083116106d957829003601f168201915b5050505050815260200160028201805461070f90610af2565b80601f016020809104026020016040519081016040528092919081815260200182805461073b90610af2565b80156107885780601f1061075d57610100808354040283529160200191610788565b820191906000526020600020905b81548152906001019060200180831161076b57829003601f168201915b505050918352505060038201546001600160a01b0381166020830152600160a01b900460ff161515604082015260049091015460609091015292915050565b600180546000916107d791610c3b565b905090565b6107e461081f565b6001600160a01b03811661081357604051631e4fbdf760e01b8152600060048201526024015b60405180910390fd5b61081c8161084c565b50565b6000546001600160a01b031633146101bf5760405163118cdaa760e01b815233600482015260240161080a565b600080546001600160a01b038381166001600160a01b0319831681178455604051919092169283917f8be0079c531659141344cd1fd0a4f28419497f9722a3daafe3b4186f6b6457e09190a35050565b6000602082840312156108ae57600080fd5b5035919050565b6001600160a01b038116811461081c57600080fd5b6000602082840312156108dc57600080fd5b81356108e7816108b5565b9392505050565b60008083601f84011261090057600080fd5b50813567ffffffffffffffff81111561091857600080fd5b60208301915083602082850101111561093057600080fd5b9250929050565b60008060008060008060006080888a03121561095257600080fd5b873567ffffffffffffffff8082111561096a57600080fd5b6109768b838c016108ee565b909950975060208a013591508082111561098f57600080fd5b61099b8b838c016108ee565b909750955060408a01359150808211156109b457600080fd5b506109c18a828b016108ee565b989b979a50959894979596606090950135949350505050565b6000815180845260005b81811015610a00576020818501810151868301820152016109e4565b506000602082860101526020601f19601f83011685010191505092915050565b602081526000825160c06020840152610a3c60e08401826109da565b90506020840151601f1980858403016040860152610a5a83836109da565b9250604086015191508085840301606086015250610a7882826109da565b91505060018060a01b0360608501511660808401526080840151151560a084015260a084015160c08401528091505092915050565b634e487b7160e01b600052603260045260246000fd5b600060208284031215610ad557600080fd5b5051919050565b634e487b7160e01b600052604160045260246000fd5b600181811c90821680610b0657607f821691505b602082108103610b2657634e487b7160e01b600052602260045260246000fd5b50919050565b601f821115610b7657600081815260208120601f850160051c81016020861015610b535750805b601f850160051c820191505b81811015610b7257828155600101610b5f565b5050505b505050565b815167ffffffffffffffff811115610b9557610b95610adc565b610ba981610ba38454610af2565b84610b2c565b602080601f831160018114610bde5760008415610bc65750858301515b600019600386901b1c1916600185901b178555610b72565b600085815260208120601f198616915b82811015610c0d57888601518255948401946001909101908401610bee565b5085821015610c2b5787850151600019600388901b60f8161c191681555b5050505050600190811b01905550565b81810381811115610c5c57634e487b7160e01b600052601160045260246000fd5b92915050565b81835281816020850137506000828201602090810191909152601f909101601f19169091010190565b608081526000610c9f60808301898b610c62565b8281036020840152610cb281888a610c62565b90508281036040840152610cc7818688610c62565b9150508260608301529897505050505050505056fea26469706673582212204b2d3ef8bb8048134bf9e1de8fd8844d3b46c1129ba3a9407c01656b73dab58e64736f6c63430008150033",
    "linkReferences": {}
  },
  "methodIdentifiers": {
    "createNews(string,string,string,uint256)": "a651bca5",
    "getNews(uint256)": "ba53911b",
    "getSharerOf(uint256)": "696ab788",
    "getTotalNews()": "d204ff3e",
    "isForwarded(uint256)": "867e1593",
    "owner()": "8da5cb5b",
    "renounceOwnership()": "715018a6",
    "setNewsEvaluationContract(address)": "78b78a10",
    "transferOwnership(address)": "f2fde38b"
  },
  "id": 56
}